{
  "contractName": "TestLighthouse",
  "abi": [
    {
      "constant": true,
      "inputs": [],
      "name": "peekData",
      "outputs": [
        {
          "name": "v",
          "type": "uint128"
        },
        {
          "name": "b",
          "type": "bool"
        }
      ],
      "payable": false,
      "stateMutability": "view",
      "type": "function"
    }
  ],
  "bytecode": "0x608060405234801561001057600080fd5b5060d98061001f6000396000f300608060405260043610603f576000357c0100000000000000000000000000000000000000000000000000000000900463ffffffff168063420b81f6146044575b600080fd5b348015604f57600080fd5b506056609b565b60405180836fffffffffffffffffffffffffffffffff166fffffffffffffffffffffffffffffffff168152602001821515151581526020019250505060405180910390f35b600080607960018191509150915090915600a165627a7a72305820100feea24208676cf90a736fe7e78d0fca9d7bd441894714f5dea26aeff8378d0029",
  "source": "pragma solidity ^0.4.23;\nimport \"./ILighthouse.sol\";\n\n//Simplified Interface for Rhombus Lighthouse Oracle\ncontract TestLighthouse {\n    \n    function peekData() external view returns (uint128 v,bool b) {\n        return (121, true);\n    }\n}\n",
  "sourcePath": "/Users/simondlr/code/ethereum/contracts-oracle/contracts/TestLighthouse.sol",
  "compiler": {
    "name": "solc",
    "version": "0.4.24+commit.e67f0147.Emscripten.clang"
  },
  "schemaVersion": "2.0.1",
  "updatedAt": "2019-01-25T08:54:26.142Z"
}