{
  "contractName": "USDETHOracle_localhost",
  "abi": [
    {
      "constant": false,
      "inputs": [],
      "name": "lockOracle",
      "outputs": [],
      "payable": false,
      "type": "function",
      "stateMutability": "nonpayable"
    },
    {
      "constant": false,
      "inputs": [
        {
          "name": "myid",
          "type": "bytes32"
        },
        {
          "name": "result",
          "type": "string"
        }
      ],
      "name": "__callback",
      "outputs": [],
      "payable": false,
      "type": "function",
      "stateMutability": "nonpayable"
    },
    {
      "constant": true,
      "inputs": [],
      "name": "ETHUSDstring",
      "outputs": [
        {
          "name": "",
          "type": "string"
        }
      ],
      "payable": false,
      "type": "function",
      "stateMutability": "view"
    },
    {
      "constant": false,
      "inputs": [
        {
          "name": "myid",
          "type": "bytes32"
        },
        {
          "name": "result",
          "type": "string"
        },
        {
          "name": "proof",
          "type": "bytes"
        }
      ],
      "name": "__callback",
      "outputs": [],
      "payable": false,
      "type": "function",
      "stateMutability": "nonpayable"
    },
    {
      "constant": true,
      "inputs": [
        {
          "name": "",
          "type": "bytes32"
        }
      ],
      "name": "myidList",
      "outputs": [
        {
          "name": "",
          "type": "bool"
        }
      ],
      "payable": false,
      "type": "function",
      "stateMutability": "view"
    },
    {
      "constant": true,
      "inputs": [],
      "name": "getUintPrice",
      "outputs": [
        {
          "name": "",
          "type": "uint256"
        }
      ],
      "payable": false,
      "type": "function",
      "stateMutability": "view"
    },
    {
      "constant": false,
      "inputs": [],
      "name": "drainOracle",
      "outputs": [
        {
          "name": "",
          "type": "string"
        }
      ],
      "payable": false,
      "type": "function",
      "stateMutability": "nonpayable"
    },
    {
      "constant": true,
      "inputs": [],
      "name": "intervalInSeconds",
      "outputs": [
        {
          "name": "",
          "type": "uint256"
        }
      ],
      "payable": false,
      "type": "function",
      "stateMutability": "view"
    },
    {
      "constant": true,
      "inputs": [],
      "name": "ETHUSDuint",
      "outputs": [
        {
          "name": "",
          "type": "uint256"
        }
      ],
      "payable": false,
      "type": "function",
      "stateMutability": "view"
    },
    {
      "constant": true,
      "inputs": [
        {
          "name": "_newInterval",
          "type": "uint256"
        }
      ],
      "name": "getPrice",
      "outputs": [
        {
          "name": "",
          "type": "string"
        }
      ],
      "payable": false,
      "type": "function",
      "stateMutability": "view"
    },
    {
      "constant": false,
      "inputs": [],
      "name": "update",
      "outputs": [
        {
          "name": "",
          "type": "bool"
        }
      ],
      "payable": true,
      "type": "function",
      "stateMutability": "payable"
    },
    {
      "constant": true,
      "inputs": [],
      "name": "lastUpdated",
      "outputs": [
        {
          "name": "",
          "type": "uint256"
        }
      ],
      "payable": false,
      "type": "function",
      "stateMutability": "view"
    },
    {
      "inputs": [
        {
          "name": "_newInterval",
          "type": "uint256"
        },
        {
          "name": "_interval",
          "type": "uint256"
        }
      ],
      "payable": false,
      "type": "function",
      "constant": false,
      "name": "updateInterval",
      "outputs": [],
      "stateMutability": "nonpayable"
    },
    {
      "anonymous": false,
      "inputs": [
        {
          "indexed": false,
          "name": "description",
          "type": "string"
        }
      ],
      "name": "lock",
      "type": "function",
      "constant": true,
      "outputs": [
        {
          "name": "",
          "type": "bool"
        }
      ],
      "payable": false,
      "stateMutability": "view"
    },
    {
      "anonymous": false,
      "inputs": [
        {
          "indexed": false,
          "name": "price",
          "type": "string"
        }
      ],
      "name": "admin",
      "type": "function",
      "constant": true,
      "outputs": [
        {
          "name": "",
          "type": "address"
        }
      ],
      "payable": false,
      "stateMutability": "view"
    },
    {
      "anonymous": false,
      "inputs": [
        {
          "indexed": false,
          "name": "_admin",
          "type": "address"
        },
        {
          "name": "_interval",
          "type": "uint256"
        }
      ],
      "name": "LogCalled",
      "type": "constructor",
      "payable": false,
      "stateMutability": "nonpayable"
    },
    {
      "payable": true,
      "stateMutability": "payable",
      "type": "fallback"
    },
    {
      "anonymous": false,
      "inputs": [
        {
          "indexed": false,
          "name": "description",
          "type": "string"
        }
      ],
      "name": "LogOraclizeQuery",
      "type": "event"
    },
    {
      "anonymous": false,
      "inputs": [
        {
          "indexed": false,
          "name": "price",
          "type": "string"
        }
      ],
      "name": "LogNewPrice",
      "type": "event"
    },
    {
      "anonymous": false,
      "inputs": [
        {
          "indexed": false,
          "name": "desc",
          "type": "string"
        }
      ],
      "name": "LogCalled",
      "type": "event"
    }
  ],
  "bytecode": "0x60606040526000600860146101000a81548160ff02191690831515021790555034156200002b57600080fd5b6040516040806200371283398101604052808051906020019091908051906020019091905050818181600860006101000a81548173ffffffffffffffffffffffffffffffffffffffff021916908373ffffffffffffffffffffffffffffffffffffffff160217905550806009819055506200010260017f01000000000000000000000000000000000000000000000000000000000000000260107f01000000000000000000000000000000000000000000000000000000000000000217620001606401000000000262002811176401000000009004565b5050736f485c8bf6fc43ea212e93bbf8ce046c7f1cb4756000806101000a81548173ffffffffffffffffffffffffffffffffffffffff021916908373ffffffffffffffffffffffffffffffffffffffff160217905550505062000b73565b60008060009054906101000a900473ffffffffffffffffffffffffffffffffffffffff1673ffffffffffffffffffffffffffffffffffffffff161480620001e657506000620001e46000809054906101000a900473ffffffffffffffffffffffffffffffffffffffff16620004e76401000000000262001f85176401000000009004565b145b156200020e576200020c6000620004f26401000000000262001f90176401000000009004565b505b6000809054906101000a900473ffffffffffffffffffffffffffffffffffffffff1673ffffffffffffffffffffffffffffffffffffffff166338cc48316000604051602001526040518163ffffffff167c0100000000000000000000000000000000000000000000000000000000028152600401602060405180830381600087803b15156200029c57600080fd5b6102c65a03f11515620002ae57600080fd5b5050506040518051905073ffffffffffffffffffffffffffffffffffffffff16600160009054906101000a900473ffffffffffffffffffffffffffffffffffffffff1673ffffffffffffffffffffffffffffffffffffffff16141515620003fa576000809054906101000a900473ffffffffffffffffffffffffffffffffffffffff1673ffffffffffffffffffffffffffffffffffffffff166338cc48316000604051602001526040518163ffffffff167c0100000000000000000000000000000000000000000000000000000000028152600401602060405180830381600087803b15156200039d57600080fd5b6102c65a03f11515620003af57600080fd5b50505060405180519050600160006101000a81548173ffffffffffffffffffffffffffffffffffffffff021916908373ffffffffffffffffffffffffffffffffffffffff1602179055505b600160009054906101000a900473ffffffffffffffffffffffffffffffffffffffff1673ffffffffffffffffffffffffffffffffffffffff1663688dcfd7826040518263ffffffff167c010000000000000000000000000000000000000000000000000000000002815260040180827effffffffffffffffffffffffffffffffffffffffffffffffffffffffffffff19167effffffffffffffffffffffffffffffffffffffffffffffffffffffffffffff19168152602001915050600060405180830381600087803b1515620004cf57600080fd5b6102c65a03f11515620004e157600080fd5b50505050565b6000813b9050919050565b60006200051262000519640100000000026200229b176401000000009004565b9050919050565b6000806200054f731d3b2638a7cc9f2cb3d298a3da7a90b67e5506ed620004e76401000000000262001f85176401000000009004565b11156200060857731d3b2638a7cc9f2cb3d298a3da7a90b67e5506ed6000806101000a81548173ffffffffffffffffffffffffffffffffffffffff021916908373ffffffffffffffffffffffffffffffffffffffff160217905550620005fe6040805190810160405280600b81526020017f6574685f6d61696e6e657400000000000000000000000000000000000000000081525062000aa8640100000000026200272a176401000000009004565b6001905062000aa5565b60006200063d73c03a2615d5efaf5f49f60b7bb6583eaec212fdf1620004e76401000000000262001f85176401000000009004565b1115620006f65773c03a2615d5efaf5f49f60b7bb6583eaec212fdf16000806101000a81548173ffffffffffffffffffffffffffffffffffffffff021916908373ffffffffffffffffffffffffffffffffffffffff160217905550620006ec6040805190810160405280600c81526020017f6574685f726f707374656e33000000000000000000000000000000000000000081525062000aa8640100000000026200272a176401000000009004565b6001905062000aa5565b60006200072b73b7a07bcf2ba2f2703b24c0691b5278999c59ac7e620004e76401000000000262001f85176401000000009004565b1115620007e45773b7a07bcf2ba2f2703b24c0691b5278999c59ac7e6000806101000a81548173ffffffffffffffffffffffffffffffffffffffff021916908373ffffffffffffffffffffffffffffffffffffffff160217905550620007da6040805190810160405280600981526020017f6574685f6b6f76616e000000000000000000000000000000000000000000000081525062000aa8640100000000026200272a176401000000009004565b6001905062000aa5565b60006200081973146500cfd35b22e4a392fe0adc06de1a1368ed48620004e76401000000000262001f85176401000000009004565b1115620008d25773146500cfd35b22e4a392fe0adc06de1a1368ed486000806101000a81548173ffffffffffffffffffffffffffffffffffffffff021916908373ffffffffffffffffffffffffffffffffffffffff160217905550620008c86040805190810160405280600b81526020017f6574685f72696e6b65627900000000000000000000000000000000000000000081525062000aa8640100000000026200272a176401000000009004565b6001905062000aa5565b600062000907736f485c8bf6fc43ea212e93bbf8ce046c7f1cb475620004e76401000000000262001f85176401000000009004565b11156200096c57736f485c8bf6fc43ea212e93bbf8ce046c7f1cb4756000806101000a81548173ffffffffffffffffffffffffffffffffffffffff021916908373ffffffffffffffffffffffffffffffffffffffff1602179055506001905062000aa5565b6000620009a17320e12a1f859b3feae5fb2a0a32c18f5a65555bbf620004e76401000000000262001f85176401000000009004565b111562000a06577320e12a1f859b3feae5fb2a0a32c18f5a65555bbf6000806101000a81548173ffffffffffffffffffffffffffffffffffffffff021916908373ffffffffffffffffffffffffffffffffffffffff1602179055506001905062000aa5565b600062000a3b7351efaf4c8b3c9afbd5ab9f4bbc82784ab6ef8faa620004e76401000000000262001f85176401000000009004565b111562000aa0577351efaf4c8b3c9afbd5ab9f4bbc82784ab6ef8faa6000806101000a81548173ffffffffffffffffffffffffffffffffffffffff021916908373ffffffffffffffffffffffffffffffffffffffff1602179055506001905062000aa5565b600090505b90565b806002908051906020019062000ac092919062000ac4565b5050565b828054600181600116156101000203166002900490600052602060002090601f016020900481019282601f1062000b0757805160ff191683800117855562000b38565b8280016001018555821562000b38579182015b8281111562000b3757825182559160200191906001019062000b1a565b5b50905062000b47919062000b4b565b5090565b62000b7091905b8082111562000b6c57600081600090555060010162000b52565b5090565b90565b612b8f8062000b836000396000f3006060604052600436106100db576000357c0100000000000000000000000000000000000000000000000000000000900463ffffffff1680630ba1fbfa146100dd57806327dc297e146100f25780632df7c12b1461015c57806338bbfa50146101ea5780633c735f541461029757806358836e9f146102d65780635cb6ce52146102ff57806364a1d7891461031457806397b875771461033d57806398d5fdca14610366578063a2e62045146103f4578063d0b06f5d146103fe578063d0f0792614610427578063f83d08ba1461044a578063f851a44014610477575b005b34156100e857600080fd5b6100f06104cc565b005b34156100fd57600080fd5b61015a60048080356000191690602001909190803590602001908201803590602001908080601f01602080910402602001604051908101604052809392919081815260200183838082843782019150505050505091905050610554565b005b341561016757600080fd5b61016f610586565b6040518080602001828103825283818151815260200191508051906020019080838360005b838110156101af578082015181840152602081019050610194565b50505050905090810190601f1680156101dc5780820380516001836020036101000a031916815260200191505b509250505060405180910390f35b34156101f557600080fd5b61029560048080356000191690602001909190803590602001908201803590602001908080601f0160208091040260200160405190810160405280939291908181526020018383808284378201915050505050509190803590602001908201803590602001908080601f01602080910402602001604051908101604052809392919081815260200183838082843782019150505050505091905050610624565b005b34156102a257600080fd5b6102bc600480803560001916906020019091905050610993565b604051808215151515815260200191505060405180910390f35b34156102e157600080fd5b6102e96109b3565b6040518082815260200191505060405180910390f35b341561030a57600080fd5b6103126109bd565b005b341561031f57600080fd5b610327610a72565b6040518082815260200191505060405180910390f35b341561034857600080fd5b610350610a78565b6040518082815260200191505060405180910390f35b341561037157600080fd5b610379610a7e565b6040518080602001828103825283818151815260200191508051906020019080838360005b838110156103b957808201518184015260208101905061039e565b50505050905090810190601f1680156103e65780820380516001836020036101000a031916815260200191505b509250505060405180910390f35b6103fc610b26565b005b341561040957600080fd5b610411610daa565b6040518082815260200191505060405180910390f35b341561043257600080fd5b6104486004808035906020019091905050610db0565b005b341561045557600080fd5b61045d610e16565b604051808215151515815260200191505060405180910390f35b341561048257600080fd5b61048a610e29565b604051808273ffffffffffffffffffffffffffffffffffffffff1673ffffffffffffffffffffffffffffffffffffffff16815260200191505060405180910390f35b600860009054906101000a900473ffffffffffffffffffffffffffffffffffffffff1673ffffffffffffffffffffffffffffffffffffffff163373ffffffffffffffffffffffffffffffffffffffff1614151561052857600080fd5b600860149054906101000a900460ff1615600860146101000a81548160ff021916908315150217905550565b610582828260006040518059106105685750595b9080825280601f01601f1916602001820160405250610624565b5050565b60058054600181600116156101000203166002900480601f01602080910402602001604051908101604052809291908181526020018280546001816001161561010002031660029004801561061c5780601f106105f15761010080835404028352916020019161061c565b820191906000526020600020905b8154815290600101906020018083116105ff57829003601f168201915b505050505081565b61062c610e4f565b73ffffffffffffffffffffffffffffffffffffffff163373ffffffffffffffffffffffffffffffffffffffff1614151561066557600080fd5b60011515600a6000856000191660001916815260200190815260200160002060009054906101000a900460ff161515141515156106a157600080fd5b6001600a6000856000191660001916815260200190815260200160002060006101000a81548160ff0219169083151502179055507fd45d7a6f84aa0bbcae75d159746c1f207b4c1b6ebd94e8e9c237170025dbeb446040518080602001828103825260118152602001807f52656365697665642063616c6c6261636b00000000000000000000000000000081525060200191505060405180910390a18160059080519060200190610753929190612744565b5061075d82611165565b600681905550426007819055507f3c77f4b04a28c401e5cef3c76564366e7448a83341f9a1d4bb2c26073cfe6a1d600560405180806020018281038252838181546001816001161561010002031660029004815260200191508054600181600116156101000203166002900480156108165780601f106107eb57610100808354040283529160200191610816565b820191906000526020600020905b8154815290600101906020018083116107f957829003601f168201915b50509250505060405180910390a1600860149054906101000a900460ff16151561098e577f0415a732c27dc65a8318b1f49677f1d76eb7365d60653ee494ed0897ef70abc86040518080602001828103825260358152602001807f4f7261636c697a65207175657279207761732073656e742c207374616e64696e81526020017f6720627920666f722074686520616e737765722e2e000000000000000000000081525060400191505060405180910390a161098c6009546040805190810160405280600381526020017f55524c0000000000000000000000000000000000000000000000000000000000815250608060405190810160405280604c81526020017f6a736f6e2868747470733a2f2f6170692e6b72616b656e2e636f6d2f302f707581526020017f626c69632f5469636b65723f706169723d455448555344292e726573756c742e81526020017f584554485a5553442e632e300000000000000000000000000000000000000000815250611179565b505b505050565b600a6020528060005260406000206000915054906101000a900460ff1681565b6000600654905090565b600860009054906101000a900473ffffffffffffffffffffffffffffffffffffffff1673ffffffffffffffffffffffffffffffffffffffff163373ffffffffffffffffffffffffffffffffffffffff16141515610a1957600080fd5b3373ffffffffffffffffffffffffffffffffffffffff166108fc3073ffffffffffffffffffffffffffffffffffffffff16319081150290604051600060405180830381858888f193505050501515610a7057600080fd5b565b60095481565b60065481565b610a866127c4565b60058054600181600116156101000203166002900480601f016020809104026020016040519081016040528092919081815260200182805460018160011615610100020316600290048015610b1c5780601f10610af157610100808354040283529160200191610b1c565b820191906000526020600020905b815481529060010190602001808311610aff57829003601f168201915b5050505050905090565b600860149054906101000a900460ff16151515610b4257600080fd5b3073ffffffffffffffffffffffffffffffffffffffff1631610b986040805190810160405280600381526020017f55524c00000000000000000000000000000000000000000000000000000000008152506116bb565b1115610c57577f0415a732c27dc65a8318b1f49677f1d76eb7365d60653ee494ed0897ef70abc860405180806020018281038252604b8152602001807f4f7261636c697a6520717565727920776173204e4f542073656e742c20706c6581526020017f6173652061646420736f6d652045544820746f20636f76657220666f7220746881526020017f652071756572792066656500000000000000000000000000000000000000000081525060600191505060405180910390a1610da8565b7f0415a732c27dc65a8318b1f49677f1d76eb7365d60653ee494ed0897ef70abc86040518080602001828103825260358152602001807f4f7261636c697a65207175657279207761732073656e742c207374616e64696e81526020017f6720627920666f722074686520616e737765722e2e000000000000000000000081525060400191505060405180910390a1610da66040805190810160405280600381526020017f55524c0000000000000000000000000000000000000000000000000000000000815250608060405190810160405280604c81526020017f6a736f6e2868747470733a2f2f6170692e6b72616b656e2e636f6d2f302f707581526020017f626c69632f5469636b65723f706169723d455448555344292e726573756c742e81526020017f584554485a5553442e632e300000000000000000000000000000000000000000815250611a43565b505b565b60075481565b600860009054906101000a900473ffffffffffffffffffffffffffffffffffffffff1673ffffffffffffffffffffffffffffffffffffffff163373ffffffffffffffffffffffffffffffffffffffff16141515610e0c57600080fd5b8060098190555050565b600860149054906101000a900460ff1681565b600860009054906101000a900473ffffffffffffffffffffffffffffffffffffffff1681565b6000806000809054906101000a900473ffffffffffffffffffffffffffffffffffffffff1673ffffffffffffffffffffffffffffffffffffffff161480610ebf57506000610ebd6000809054906101000a900473ffffffffffffffffffffffffffffffffffffffff16611f85565b145b15610ed057610ece6000611f90565b505b6000809054906101000a900473ffffffffffffffffffffffffffffffffffffffff1673ffffffffffffffffffffffffffffffffffffffff166338cc48316000604051602001526040518163ffffffff167c0100000000000000000000000000000000000000000000000000000000028152600401602060405180830381600087803b1515610f5d57600080fd5b6102c65a03f11515610f6e57600080fd5b5050506040518051905073ffffffffffffffffffffffffffffffffffffffff16600160009054906101000a900473ffffffffffffffffffffffffffffffffffffffff1673ffffffffffffffffffffffffffffffffffffffff161415156110b7576000809054906101000a900473ffffffffffffffffffffffffffffffffffffffff1673ffffffffffffffffffffffffffffffffffffffff166338cc48316000604051602001526040518163ffffffff167c0100000000000000000000000000000000000000000000000000000000028152600401602060405180830381600087803b151561105b57600080fd5b6102c65a03f1151561106c57600080fd5b50505060405180519050600160006101000a81548173ffffffffffffffffffffffffffffffffffffffff021916908373ffffffffffffffffffffffffffffffffffffffff1602179055505b600160009054906101000a900473ffffffffffffffffffffffffffffffffffffffff1673ffffffffffffffffffffffffffffffffffffffff1663c281d19e6000604051602001526040518163ffffffff167c0100000000000000000000000000000000000000000000000000000000028152600401602060405180830381600087803b151561114557600080fd5b6102c65a03f1151561115657600080fd5b50505060405180519050905090565b6000611172826000611fa1565b9050919050565b60008060008060009054906101000a900473ffffffffffffffffffffffffffffffffffffffff1673ffffffffffffffffffffffffffffffffffffffff1614806111eb575060006111e96000809054906101000a900473ffffffffffffffffffffffffffffffffffffffff16611f85565b145b156111fc576111fa6000611f90565b505b6000809054906101000a900473ffffffffffffffffffffffffffffffffffffffff1673ffffffffffffffffffffffffffffffffffffffff166338cc48316000604051602001526040518163ffffffff167c0100000000000000000000000000000000000000000000000000000000028152600401602060405180830381600087803b151561128957600080fd5b6102c65a03f1151561129a57600080fd5b5050506040518051905073ffffffffffffffffffffffffffffffffffffffff16600160009054906101000a900473ffffffffffffffffffffffffffffffffffffffff1673ffffffffffffffffffffffffffffffffffffffff161415156113e3576000809054906101000a900473ffffffffffffffffffffffffffffffffffffffff1673ffffffffffffffffffffffffffffffffffffffff166338cc48316000604051602001526040518163ffffffff167c0100000000000000000000000000000000000000000000000000000000028152600401602060405180830381600087803b151561138757600080fd5b6102c65a03f1151561139857600080fd5b50505060405180519050600160006101000a81548173ffffffffffffffffffffffffffffffffffffffff021916908373ffffffffffffffffffffffffffffffffffffffff1602179055505b600160009054906101000a900473ffffffffffffffffffffffffffffffffffffffff1673ffffffffffffffffffffffffffffffffffffffff1663524f3889856000604051602001526040518263ffffffff167c01000000000000000000000000000000000000000000000000000000000281526004018080602001828103825283818151815260200191508051906020019080838360005b8381101561149657808201518184015260208101905061147b565b50505050905090810190601f1680156114c35780820380516001836020036101000a031916815260200191505b5092505050602060405180830381600087803b15156114e157600080fd5b6102c65a03f115156114f257600080fd5b50505060405180519050905062030d403a02670de0b6b3a76400000181111561152157600060010291506116b3565b600160009054906101000a900473ffffffffffffffffffffffffffffffffffffffff1673ffffffffffffffffffffffffffffffffffffffff1663adf59f99828787876000604051602001526040518563ffffffff167c0100000000000000000000000000000000000000000000000000000000028152600401808481526020018060200180602001838103835285818151815260200191508051906020019080838360005b838110156115e15780820151818401526020810190506115c6565b50505050905090810190601f16801561160e5780820380516001836020036101000a031916815260200191505b50838103825284818151815260200191508051906020019080838360005b8381101561164757808201518184015260208101905061162c565b50505050905090810190601f1680156116745780820380516001836020036101000a031916815260200191505b50955050505050506020604051808303818588803b151561169457600080fd5b6125ee5a03f115156116a557600080fd5b505050506040518051905091505b509392505050565b6000806000809054906101000a900473ffffffffffffffffffffffffffffffffffffffff1673ffffffffffffffffffffffffffffffffffffffff16148061172b575060006117296000809054906101000a900473ffffffffffffffffffffffffffffffffffffffff16611f85565b145b1561173c5761173a6000611f90565b505b6000809054906101000a900473ffffffffffffffffffffffffffffffffffffffff1673ffffffffffffffffffffffffffffffffffffffff166338cc48316000604051602001526040518163ffffffff167c0100000000000000000000000000000000000000000000000000000000028152600401602060405180830381600087803b15156117c957600080fd5b6102c65a03f115156117da57600080fd5b5050506040518051905073ffffffffffffffffffffffffffffffffffffffff16600160009054906101000a900473ffffffffffffffffffffffffffffffffffffffff1673ffffffffffffffffffffffffffffffffffffffff16141515611923576000809054906101000a900473ffffffffffffffffffffffffffffffffffffffff1673ffffffffffffffffffffffffffffffffffffffff166338cc48316000604051602001526040518163ffffffff167c0100000000000000000000000000000000000000000000000000000000028152600401602060405180830381600087803b15156118c757600080fd5b6102c65a03f115156118d857600080fd5b50505060405180519050600160006101000a81548173ffffffffffffffffffffffffffffffffffffffff021916908373ffffffffffffffffffffffffffffffffffffffff1602179055505b600160009054906101000a900473ffffffffffffffffffffffffffffffffffffffff1673ffffffffffffffffffffffffffffffffffffffff1663524f3889836000604051602001526040518263ffffffff167c01000000000000000000000000000000000000000000000000000000000281526004018080602001828103825283818151815260200191508051906020019080838360005b838110156119d65780820151818401526020810190506119bb565b50505050905090810190601f168015611a035780820380516001836020036101000a031916815260200191505b5092505050602060405180830381600087803b1515611a2157600080fd5b6102c65a03f11515611a3257600080fd5b505050604051805190509050919050565b60008060008060009054906101000a900473ffffffffffffffffffffffffffffffffffffffff1673ffffffffffffffffffffffffffffffffffffffff161480611ab557506000611ab36000809054906101000a900473ffffffffffffffffffffffffffffffffffffffff16611f85565b145b15611ac657611ac46000611f90565b505b6000809054906101000a900473ffffffffffffffffffffffffffffffffffffffff1673ffffffffffffffffffffffffffffffffffffffff166338cc48316000604051602001526040518163ffffffff167c0100000000000000000000000000000000000000000000000000000000028152600401602060405180830381600087803b1515611b5357600080fd5b6102c65a03f11515611b6457600080fd5b5050506040518051905073ffffffffffffffffffffffffffffffffffffffff16600160009054906101000a900473ffffffffffffffffffffffffffffffffffffffff1673ffffffffffffffffffffffffffffffffffffffff16141515611cad576000809054906101000a900473ffffffffffffffffffffffffffffffffffffffff1673ffffffffffffffffffffffffffffffffffffffff166338cc48316000604051602001526040518163ffffffff167c0100000000000000000000000000000000000000000000000000000000028152600401602060405180830381600087803b1515611c5157600080fd5b6102c65a03f11515611c6257600080fd5b50505060405180519050600160006101000a81548173ffffffffffffffffffffffffffffffffffffffff021916908373ffffffffffffffffffffffffffffffffffffffff1602179055505b600160009054906101000a900473ffffffffffffffffffffffffffffffffffffffff1673ffffffffffffffffffffffffffffffffffffffff1663524f3889856000604051602001526040518263ffffffff167c01000000000000000000000000000000000000000000000000000000000281526004018080602001828103825283818151815260200191508051906020019080838360005b83811015611d60578082015181840152602081019050611d45565b50505050905090810190601f168015611d8d5780820380516001836020036101000a031916815260200191505b5092505050602060405180830381600087803b1515611dab57600080fd5b6102c65a03f11515611dbc57600080fd5b50505060405180519050905062030d403a02670de0b6b3a764000001811115611deb5760006001029150611f7e565b600160009054906101000a900473ffffffffffffffffffffffffffffffffffffffff1673ffffffffffffffffffffffffffffffffffffffff1663adf59f9982600087876000604051602001526040518563ffffffff167c0100000000000000000000000000000000000000000000000000000000028152600401808481526020018060200180602001838103835285818151815260200191508051906020019080838360005b83811015611eac578082015181840152602081019050611e91565b50505050905090810190601f168015611ed95780820380516001836020036101000a031916815260200191505b50838103825284818151815260200191508051906020019080838360005b83811015611f12578082015181840152602081019050611ef7565b50505050905090810190601f168015611f3f5780820380516001836020036101000a031916815260200191505b50955050505050506020604051808303818588803b1515611f5f57600080fd5b6125ee5a03f11515611f7057600080fd5b505050506040518051905091505b5092915050565b6000813b9050919050565b6000611f9a61229b565b9050919050565b6000611fab6127d8565b60008060008693506000925060009150600090505b835181101561227c5760307f0100000000000000000000000000000000000000000000000000000000000000028482815181101515611ffb57fe5b9060200101517f010000000000000000000000000000000000000000000000000000000000000090047f0100000000000000000000000000000000000000000000000000000000000000027effffffffffffffffffffffffffffffffffffffffffffffffffffffffffffff191610158015612113575060397f01000000000000000000000000000000000000000000000000000000000000000284828151811015156120a357fe5b9060200101517f010000000000000000000000000000000000000000000000000000000000000090047f0100000000000000000000000000000000000000000000000000000000000000027effffffffffffffffffffffffffffffffffffffffffffffffffffffffffffff191611155b156121c457811561213657600086141561212c5761227c565b8580600190039650505b600a830292506030848281518110151561214c57fe5b9060200101517f010000000000000000000000000000000000000000000000000000000000000090047f0100000000000000000000000000000000000000000000000000000000000000027f01000000000000000000000000000000000000000000000000000000000000009004038301925061226f565b602e7f01000000000000000000000000000000000000000000000000000000000000000284828151811015156121f657fe5b9060200101517f010000000000000000000000000000000000000000000000000000000000000090047f0100000000000000000000000000000000000000000000000000000000000000027effffffffffffffffffffffffffffffffffffffffffffffffffffffffffffff1916141561226e57600191505b5b8080600101915050611fc0565b600086111561228e5785600a0a830292505b8294505050505092915050565b6000806122bb731d3b2638a7cc9f2cb3d298a3da7a90b67e5506ed611f85565b111561235c57731d3b2638a7cc9f2cb3d298a3da7a90b67e5506ed6000806101000a81548173ffffffffffffffffffffffffffffffffffffffff021916908373ffffffffffffffffffffffffffffffffffffffff1602179055506123536040805190810160405280600b81526020017f6574685f6d61696e6e657400000000000000000000000000000000000000000081525061272a565b60019050612727565b600061237b73c03a2615d5efaf5f49f60b7bb6583eaec212fdf1611f85565b111561241c5773c03a2615d5efaf5f49f60b7bb6583eaec212fdf16000806101000a81548173ffffffffffffffffffffffffffffffffffffffff021916908373ffffffffffffffffffffffffffffffffffffffff1602179055506124136040805190810160405280600c81526020017f6574685f726f707374656e33000000000000000000000000000000000000000081525061272a565b60019050612727565b600061243b73b7a07bcf2ba2f2703b24c0691b5278999c59ac7e611f85565b11156124dc5773b7a07bcf2ba2f2703b24c0691b5278999c59ac7e6000806101000a81548173ffffffffffffffffffffffffffffffffffffffff021916908373ffffffffffffffffffffffffffffffffffffffff1602179055506124d36040805190810160405280600981526020017f6574685f6b6f76616e000000000000000000000000000000000000000000000081525061272a565b60019050612727565b60006124fb73146500cfd35b22e4a392fe0adc06de1a1368ed48611f85565b111561259c5773146500cfd35b22e4a392fe0adc06de1a1368ed486000806101000a81548173ffffffffffffffffffffffffffffffffffffffff021916908373ffffffffffffffffffffffffffffffffffffffff1602179055506125936040805190810160405280600b81526020017f6574685f72696e6b65627900000000000000000000000000000000000000000081525061272a565b60019050612727565b60006125bb736f485c8bf6fc43ea212e93bbf8ce046c7f1cb475611f85565b111561261e57736f485c8bf6fc43ea212e93bbf8ce046c7f1cb4756000806101000a81548173ffffffffffffffffffffffffffffffffffffffff021916908373ffffffffffffffffffffffffffffffffffffffff16021790555060019050612727565b600061263d7320e12a1f859b3feae5fb2a0a32c18f5a65555bbf611f85565b11156126a0577320e12a1f859b3feae5fb2a0a32c18f5a65555bbf6000806101000a81548173ffffffffffffffffffffffffffffffffffffffff021916908373ffffffffffffffffffffffffffffffffffffffff16021790555060019050612727565b60006126bf7351efaf4c8b3c9afbd5ab9f4bbc82784ab6ef8faa611f85565b1115612722577351efaf4c8b3c9afbd5ab9f4bbc82784ab6ef8faa6000806101000a81548173ffffffffffffffffffffffffffffffffffffffff021916908373ffffffffffffffffffffffffffffffffffffffff16021790555060019050612727565b600090505b90565b8060029080519060200190612740929190612744565b5050565b828054600181600116156101000203166002900490600052602060002090601f016020900481019282601f1061278557805160ff19168380011785556127b3565b828001600101855582156127b3579182015b828111156127b2578251825591602001919060010190612797565b5b5090506127c091906127ec565b5090565b602060405190810160405280600081525090565b602060405190810160405280600081525090565b61280e91905b8082111561280a5760008160009055506001016127f2565b5090565b90565b60008060009054906101000a900473ffffffffffffffffffffffffffffffffffffffff1673ffffffffffffffffffffffffffffffffffffffff1614806128805750600061287e6000809054906101000a900473ffffffffffffffffffffffffffffffffffffffff16611f85565b145b156128915761288f6000611f90565b505b6000809054906101000a900473ffffffffffffffffffffffffffffffffffffffff1673ffffffffffffffffffffffffffffffffffffffff166338cc48316000604051602001526040518163ffffffff167c0100000000000000000000000000000000000000000000000000000000028152600401602060405180830381600087803b151561291e57600080fd5b6102c65a03f1151561292f57600080fd5b5050506040518051905073ffffffffffffffffffffffffffffffffffffffff16600160009054906101000a900473ffffffffffffffffffffffffffffffffffffffff1673ffffffffffffffffffffffffffffffffffffffff16141515612a78576000809054906101000a900473ffffffffffffffffffffffffffffffffffffffff1673ffffffffffffffffffffffffffffffffffffffff166338cc48316000604051602001526040518163ffffffff167c0100000000000000000000000000000000000000000000000000000000028152600401602060405180830381600087803b1515612a1c57600080fd5b6102c65a03f11515612a2d57600080fd5b50505060405180519050600160006101000a81548173ffffffffffffffffffffffffffffffffffffffff021916908373ffffffffffffffffffffffffffffffffffffffff1602179055505b600160009054906101000a900473ffffffffffffffffffffffffffffffffffffffff1673ffffffffffffffffffffffffffffffffffffffff1663688dcfd7826040518263ffffffff167c010000000000000000000000000000000000000000000000000000000002815260040180827effffffffffffffffffffffffffffffffffffffffffffffffffffffffffffff19167effffffffffffffffffffffffffffffffffffffffffffffffffffffffffffff19168152602001915050600060405180830381600087803b1515612b4c57600080fd5b6102c65a03f11515612b5d57600080fd5b505050505600a165627a7a72305820a936efb6eb0843bbe0e95389e5725c55e080e7390a4c848d216414138f451bf80029",
  "source": "/*\nFor testing using the Ethereum Bridge on localhost.\nRequires setting to your own resolver.\n*/\n\npragma solidity ^0.4.10;\nimport \"./USDETHOracle.sol\";\n\ncontract USDETHOracle_localhost is USDETHOracle {\n\n    function USDETHOracle_localhost(address _admin, uint256 _interval) USDETHOracle(_admin, _interval) public {\n        OAR = OraclizeAddrResolverI(0x6f485C8BF6fc43eA212E93BBF8ce046C7f1cb475); //replace with new address when run again\n    }\n\n}\n",
  "sourcePath": "/Users/simondlr/code/ethereum/ujo-contracts/oracle/contracts/USDETHOracle_localhost.sol",
  "compiler": {
    "name": "solc",
    "version": "0.4.18+commit.9cf6e910.Emscripten.clang"
  },
  "schemaVersion": "1.0.1",
  "updatedAt": "2017-12-07T11:27:46.494Z"
}