{
  "contractName": "USDETHOracle",
  "abi": [
    {
      "constant": true,
      "inputs": [
        {
          "name": "",
          "type": "bytes32"
        }
      ],
      "name": "myidList",
      "outputs": [
        {
          "name": "",
          "type": "bool"
        }
      ],
      "payable": false,
      "stateMutability": "view",
      "type": "function"
    },
    {
      "constant": true,
      "inputs": [],
      "name": "url",
      "outputs": [
        {
          "name": "",
          "type": "string"
        }
      ],
      "payable": false,
      "stateMutability": "view",
      "type": "function"
    },
    {
      "constant": true,
      "inputs": [],
      "name": "ethUsdString",
      "outputs": [
        {
          "name": "",
          "type": "string"
        }
      ],
      "payable": false,
      "stateMutability": "view",
      "type": "function"
    },
    {
      "constant": true,
      "inputs": [],
      "name": "intervalInSeconds",
      "outputs": [
        {
          "name": "",
          "type": "uint256"
        }
      ],
      "payable": false,
      "stateMutability": "view",
      "type": "function"
    },
    {
      "constant": true,
      "inputs": [],
      "name": "lastUpdated",
      "outputs": [
        {
          "name": "",
          "type": "uint256"
        }
      ],
      "payable": false,
      "stateMutability": "view",
      "type": "function"
    },
    {
      "constant": true,
      "inputs": [],
      "name": "ethUsdUint",
      "outputs": [
        {
          "name": "",
          "type": "uint256"
        }
      ],
      "payable": false,
      "stateMutability": "view",
      "type": "function"
    },
    {
      "constant": true,
      "inputs": [],
      "name": "lock",
      "outputs": [
        {
          "name": "",
          "type": "bool"
        }
      ],
      "payable": false,
      "stateMutability": "view",
      "type": "function"
    },
    {
      "constant": true,
      "inputs": [],
      "name": "admin",
      "outputs": [
        {
          "name": "",
          "type": "address"
        }
      ],
      "payable": false,
      "stateMutability": "view",
      "type": "function"
    },
    {
      "inputs": [
        {
          "name": "_admin",
          "type": "address"
        },
        {
          "name": "_interval",
          "type": "uint256"
        }
      ],
      "payable": false,
      "stateMutability": "nonpayable",
      "type": "constructor"
    },
    {
      "payable": true,
      "stateMutability": "payable",
      "type": "fallback"
    },
    {
      "anonymous": false,
      "inputs": [
        {
          "indexed": false,
          "name": "description",
          "type": "string"
        }
      ],
      "name": "LogOraclizeQuery",
      "type": "event"
    },
    {
      "anonymous": false,
      "inputs": [
        {
          "indexed": false,
          "name": "price",
          "type": "string"
        }
      ],
      "name": "LogNewPrice",
      "type": "event"
    },
    {
      "anonymous": false,
      "inputs": [
        {
          "indexed": false,
          "name": "desc",
          "type": "string"
        }
      ],
      "name": "LogCalled",
      "type": "event"
    },
    {
      "constant": false,
      "inputs": [
        {
          "name": "myid",
          "type": "bytes32"
        },
        {
          "name": "result",
          "type": "string"
        }
      ],
      "name": "__callback",
      "outputs": [],
      "payable": false,
      "stateMutability": "nonpayable",
      "type": "function"
    },
    {
      "constant": false,
      "inputs": [
        {
          "name": "myid",
          "type": "bytes32"
        },
        {
          "name": "result",
          "type": "string"
        },
        {
          "name": "proof",
          "type": "bytes"
        }
      ],
      "name": "__callback",
      "outputs": [],
      "payable": false,
      "stateMutability": "nonpayable",
      "type": "function"
    },
    {
      "constant": false,
      "inputs": [],
      "name": "update",
      "outputs": [],
      "payable": true,
      "stateMutability": "payable",
      "type": "function"
    },
    {
      "constant": false,
      "inputs": [
        {
          "name": "_newInterval",
          "type": "uint256"
        }
      ],
      "name": "updateInterval",
      "outputs": [],
      "payable": false,
      "stateMutability": "nonpayable",
      "type": "function"
    },
    {
      "constant": false,
      "inputs": [],
      "name": "lockOracle",
      "outputs": [],
      "payable": false,
      "stateMutability": "nonpayable",
      "type": "function"
    },
    {
      "constant": false,
      "inputs": [
        {
          "name": "_newURL",
          "type": "string"
        }
      ],
      "name": "changeURL",
      "outputs": [],
      "payable": false,
      "stateMutability": "nonpayable",
      "type": "function"
    },
    {
      "constant": false,
      "inputs": [
        {
          "name": "_newAdmin",
          "type": "address"
        }
      ],
      "name": "changeAdmin",
      "outputs": [],
      "payable": false,
      "stateMutability": "nonpayable",
      "type": "function"
    },
    {
      "constant": false,
      "inputs": [],
      "name": "drainOracle",
      "outputs": [],
      "payable": false,
      "stateMutability": "nonpayable",
      "type": "function"
    },
    {
      "constant": true,
      "inputs": [],
      "name": "getPrice",
      "outputs": [
        {
          "name": "",
          "type": "string"
        }
      ],
      "payable": false,
      "stateMutability": "view",
      "type": "function"
    },
    {
      "constant": true,
      "inputs": [],
      "name": "getUintPrice",
      "outputs": [
        {
          "name": "",
          "type": "uint256"
        }
      ],
      "payable": false,
      "stateMutability": "view",
      "type": "function"
    }
  ],
  "bytecode": "0x60606040526000600860146101000a81548160ff02191690831515021790555034156200002b57600080fd5b60405160408062002d338339810160405280805190602001909190805190602001909190505081600860006101000a81548173ffffffffffffffffffffffffffffffffffffffff021916908373ffffffffffffffffffffffffffffffffffffffff16021790555080600981905550608060405190810160405280604c81526020017f6a736f6e2868747470733a2f2f6170692e6b72616b656e2e636f6d2f302f707581526020017f626c69632f5469636b65723f706169723d455448555344292e726573756c742e81526020017f584554485a5553442e632e300000000000000000000000000000000000000000815250600b9080519060200190620001339291906200013c565b505050620001eb565b828054600181600116156101000203166002900490600052602060002090601f016020900481019282601f106200017f57805160ff1916838001178555620001b0565b82800160010185558215620001b0579182015b82811115620001af57825182559160200191906001019062000192565b5b509050620001bf9190620001c3565b5090565b620001e891905b80821115620001e4576000816000905550600101620001ca565b5090565b90565b612b3880620001fb6000396000f3006060604052600436106100fc576000357c0100000000000000000000000000000000000000000000000000000000900463ffffffff1680630ba1fbfa146100fe57806327dc297e1461011357806338bbfa501461017d5780633c735f541461022a5780635600f04f1461026957806358836e9f146102f75780635cb6ce52146103205780635d1b00881461033557806364a1d789146103c35780638f283970146103ec57806398d5fdca14610425578063a0041286146104b3578063a2e6204514610510578063d0b06f5d1461051a578063d0f0792614610543578063f379a7e714610566578063f83d08ba1461058f578063f851a440146105bc575b005b341561010957600080fd5b610111610611565b005b341561011e57600080fd5b61017b60048080356000191690602001909190803590602001908201803590602001908080601f01602080910402602001604051908101604052809392919081815260200183838082843782019150505050505091905050610699565b005b341561018857600080fd5b61022860048080356000191690602001909190803590602001908201803590602001908080601f0160208091040260200160405190810160405280939291908181526020018383808284378201915050505050509190803590602001908201803590602001908080601f01602080910402602001604051908101604052809392919081815260200183838082843782019150505050505091905050610a1f565b005b341561023557600080fd5b61024f600480803560001916906020019091905050610a24565b604051808215151515815260200191505060405180910390f35b341561027457600080fd5b61027c610a44565b6040518080602001828103825283818151815260200191508051906020019080838360005b838110156102bc5780820151818401526020810190506102a1565b50505050905090810190601f1680156102e95780820380516001836020036101000a031916815260200191505b509250505060405180910390f35b341561030257600080fd5b61030a610ae2565b6040518082815260200191505060405180910390f35b341561032b57600080fd5b610333610aec565b005b341561034057600080fd5b610348610ba1565b6040518080602001828103825283818151815260200191508051906020019080838360005b8381101561038857808201518184015260208101905061036d565b50505050905090810190601f1680156103b55780820380516001836020036101000a031916815260200191505b509250505060405180910390f35b34156103ce57600080fd5b6103d6610c3f565b6040518082815260200191505060405180910390f35b34156103f757600080fd5b610423600480803573ffffffffffffffffffffffffffffffffffffffff16906020019091905050610c45565b005b341561043057600080fd5b610438610ce5565b6040518080602001828103825283818151815260200191508051906020019080838360005b8381101561047857808201518184015260208101905061045d565b50505050905090810190601f1680156104a55780820380516001836020036101000a031916815260200191505b509250505060405180910390f35b34156104be57600080fd5b61050e600480803590602001908201803590602001908080601f01602080910402602001604051908101604052809392919081815260200183838082843782019150505050505091905050610d8d565b005b610518610e03565b005b341561052557600080fd5b61052d61109f565b6040518082815260200191505060405180910390f35b341561054e57600080fd5b61056460048080359060200190919050506110a5565b005b341561057157600080fd5b61057961110b565b6040518082815260200191505060405180910390f35b341561059a57600080fd5b6105a2611111565b604051808215151515815260200191505060405180910390f35b34156105c757600080fd5b6105cf611124565b604051808273ffffffffffffffffffffffffffffffffffffffff1673ffffffffffffffffffffffffffffffffffffffff16815260200191505060405180910390f35b600860009054906101000a900473ffffffffffffffffffffffffffffffffffffffff1673ffffffffffffffffffffffffffffffffffffffff163373ffffffffffffffffffffffffffffffffffffffff1614151561066d57600080fd5b600860149054906101000a900460ff1615600860146101000a81548160ff021916908315150217905550565b6106a161114a565b73ffffffffffffffffffffffffffffffffffffffff163373ffffffffffffffffffffffffffffffffffffffff161415156106da57600080fd5b60011515600a6000846000191660001916815260200190815260200160002060009054906101000a900460ff1615151415151561071657600080fd5b6001600a6000846000191660001916815260200190815260200160002060006101000a81548160ff0219169083151502179055507fd45d7a6f84aa0bbcae75d159746c1f207b4c1b6ebd94e8e9c237170025dbeb446040518080602001828103825260118152602001807f52656365697665642063616c6c6261636b00000000000000000000000000000081525060200191505060405180910390a180600590805190602001906107c8929190612a3f565b506107d281611460565b600681905550426007819055507f3c77f4b04a28c401e5cef3c76564366e7448a83341f9a1d4bb2c26073cfe6a1d6005604051808060200182810382528381815460018160011615610100020316600290048152602001915080546001816001161561010002031660029004801561088b5780601f106108605761010080835404028352916020019161088b565b820191906000526020600020905b81548152906001019060200180831161086e57829003601f168201915b50509250505060405180910390a1600860149054906101000a900460ff161515610a1b577f0415a732c27dc65a8318b1f49677f1d76eb7365d60653ee494ed0897ef70abc86040518080602001828103825260358152602001807f4f7261636c697a65207175657279207761732073656e742c207374616e64696e81526020017f6720627920666f722074686520616e737765722e2e000000000000000000000081525060400191505060405180910390a1610a196009546040805190810160405280600381526020017f55524c0000000000000000000000000000000000000000000000000000000000815250600b8054600181600116156101000203166002900480601f016020809104026020016040519081016040528092919081815260200182805460018160011615610100020316600290048015610a0f5780601f106109e457610100808354040283529160200191610a0f565b820191906000526020600020905b8154815290600101906020018083116109f257829003601f168201915b5050505050611474565b505b5050565b505050565b600a6020528060005260406000206000915054906101000a900460ff1681565b600b8054600181600116156101000203166002900480601f016020809104026020016040519081016040528092919081815260200182805460018160011615610100020316600290048015610ada5780601f10610aaf57610100808354040283529160200191610ada565b820191906000526020600020905b815481529060010190602001808311610abd57829003601f168201915b505050505081565b6000600654905090565b600860009054906101000a900473ffffffffffffffffffffffffffffffffffffffff1673ffffffffffffffffffffffffffffffffffffffff163373ffffffffffffffffffffffffffffffffffffffff16141515610b4857600080fd5b3373ffffffffffffffffffffffffffffffffffffffff166108fc3073ffffffffffffffffffffffffffffffffffffffff16319081150290604051600060405180830381858888f193505050501515610b9f57600080fd5b565b60058054600181600116156101000203166002900480601f016020809104026020016040519081016040528092919081815260200182805460018160011615610100020316600290048015610c375780601f10610c0c57610100808354040283529160200191610c37565b820191906000526020600020905b815481529060010190602001808311610c1a57829003601f168201915b505050505081565b60095481565b600860009054906101000a900473ffffffffffffffffffffffffffffffffffffffff1673ffffffffffffffffffffffffffffffffffffffff163373ffffffffffffffffffffffffffffffffffffffff16141515610ca157600080fd5b80600860006101000a81548173ffffffffffffffffffffffffffffffffffffffff021916908373ffffffffffffffffffffffffffffffffffffffff16021790555050565b610ced612abf565b60058054600181600116156101000203166002900480601f016020809104026020016040519081016040528092919081815260200182805460018160011615610100020316600290048015610d835780601f10610d5857610100808354040283529160200191610d83565b820191906000526020600020905b815481529060010190602001808311610d6657829003601f168201915b5050505050905090565b600860009054906101000a900473ffffffffffffffffffffffffffffffffffffffff1673ffffffffffffffffffffffffffffffffffffffff163373ffffffffffffffffffffffffffffffffffffffff16141515610de957600080fd5b80600b9080519060200190610dff929190612a3f565b5050565b600860149054906101000a900460ff16151515610e1f57600080fd5b3073ffffffffffffffffffffffffffffffffffffffff1631610e756040805190810160405280600381526020017f55524c00000000000000000000000000000000000000000000000000000000008152506119b6565b1115610f34577f0415a732c27dc65a8318b1f49677f1d76eb7365d60653ee494ed0897ef70abc860405180806020018281038252604b8152602001807f4f7261636c697a6520717565727920776173204e4f542073656e742c20706c6581526020017f6173652061646420736f6d652045544820746f20636f76657220666f7220746881526020017f652071756572792066656500000000000000000000000000000000000000000081525060600191505060405180910390a161109d565b7f0415a732c27dc65a8318b1f49677f1d76eb7365d60653ee494ed0897ef70abc86040518080602001828103825260358152602001807f4f7261636c697a65207175657279207761732073656e742c207374616e64696e81526020017f6720627920666f722074686520616e737765722e2e000000000000000000000081525060400191505060405180910390a161109b6040805190810160405280600381526020017f55524c0000000000000000000000000000000000000000000000000000000000815250600b8054600181600116156101000203166002900480601f0160208091040260200160405190810160405280929190818152602001828054600181600116156101000203166002900480156110915780601f1061106657610100808354040283529160200191611091565b820191906000526020600020905b81548152906001019060200180831161107457829003601f168201915b5050505050611d3e565b505b565b60075481565b600860009054906101000a900473ffffffffffffffffffffffffffffffffffffffff1673ffffffffffffffffffffffffffffffffffffffff163373ffffffffffffffffffffffffffffffffffffffff1614151561110157600080fd5b8060098190555050565b60065481565b600860149054906101000a900460ff1681565b600860009054906101000a900473ffffffffffffffffffffffffffffffffffffffff1681565b6000806000809054906101000a900473ffffffffffffffffffffffffffffffffffffffff1673ffffffffffffffffffffffffffffffffffffffff1614806111ba575060006111b86000809054906101000a900473ffffffffffffffffffffffffffffffffffffffff16612280565b145b156111cb576111c9600061228b565b505b6000809054906101000a900473ffffffffffffffffffffffffffffffffffffffff1673ffffffffffffffffffffffffffffffffffffffff166338cc48316000604051602001526040518163ffffffff167c0100000000000000000000000000000000000000000000000000000000028152600401602060405180830381600087803b151561125857600080fd5b6102c65a03f1151561126957600080fd5b5050506040518051905073ffffffffffffffffffffffffffffffffffffffff16600160009054906101000a900473ffffffffffffffffffffffffffffffffffffffff1673ffffffffffffffffffffffffffffffffffffffff161415156113b2576000809054906101000a900473ffffffffffffffffffffffffffffffffffffffff1673ffffffffffffffffffffffffffffffffffffffff166338cc48316000604051602001526040518163ffffffff167c0100000000000000000000000000000000000000000000000000000000028152600401602060405180830381600087803b151561135657600080fd5b6102c65a03f1151561136757600080fd5b50505060405180519050600160006101000a81548173ffffffffffffffffffffffffffffffffffffffff021916908373ffffffffffffffffffffffffffffffffffffffff1602179055505b600160009054906101000a900473ffffffffffffffffffffffffffffffffffffffff1673ffffffffffffffffffffffffffffffffffffffff1663c281d19e6000604051602001526040518163ffffffff167c0100000000000000000000000000000000000000000000000000000000028152600401602060405180830381600087803b151561144057600080fd5b6102c65a03f1151561145157600080fd5b50505060405180519050905090565b600061146d82600061229c565b9050919050565b60008060008060009054906101000a900473ffffffffffffffffffffffffffffffffffffffff1673ffffffffffffffffffffffffffffffffffffffff1614806114e6575060006114e46000809054906101000a900473ffffffffffffffffffffffffffffffffffffffff16612280565b145b156114f7576114f5600061228b565b505b6000809054906101000a900473ffffffffffffffffffffffffffffffffffffffff1673ffffffffffffffffffffffffffffffffffffffff166338cc48316000604051602001526040518163ffffffff167c0100000000000000000000000000000000000000000000000000000000028152600401602060405180830381600087803b151561158457600080fd5b6102c65a03f1151561159557600080fd5b5050506040518051905073ffffffffffffffffffffffffffffffffffffffff16600160009054906101000a900473ffffffffffffffffffffffffffffffffffffffff1673ffffffffffffffffffffffffffffffffffffffff161415156116de576000809054906101000a900473ffffffffffffffffffffffffffffffffffffffff1673ffffffffffffffffffffffffffffffffffffffff166338cc48316000604051602001526040518163ffffffff167c0100000000000000000000000000000000000000000000000000000000028152600401602060405180830381600087803b151561168257600080fd5b6102c65a03f1151561169357600080fd5b50505060405180519050600160006101000a81548173ffffffffffffffffffffffffffffffffffffffff021916908373ffffffffffffffffffffffffffffffffffffffff1602179055505b600160009054906101000a900473ffffffffffffffffffffffffffffffffffffffff1673ffffffffffffffffffffffffffffffffffffffff1663524f3889856000604051602001526040518263ffffffff167c01000000000000000000000000000000000000000000000000000000000281526004018080602001828103825283818151815260200191508051906020019080838360005b83811015611791578082015181840152602081019050611776565b50505050905090810190601f1680156117be5780820380516001836020036101000a031916815260200191505b5092505050602060405180830381600087803b15156117dc57600080fd5b6102c65a03f115156117ed57600080fd5b50505060405180519050905062030d403a02670de0b6b3a76400000181111561181c57600060010291506119ae565b600160009054906101000a900473ffffffffffffffffffffffffffffffffffffffff1673ffffffffffffffffffffffffffffffffffffffff1663adf59f99828787876000604051602001526040518563ffffffff167c0100000000000000000000000000000000000000000000000000000000028152600401808481526020018060200180602001838103835285818151815260200191508051906020019080838360005b838110156118dc5780820151818401526020810190506118c1565b50505050905090810190601f1680156119095780820380516001836020036101000a031916815260200191505b50838103825284818151815260200191508051906020019080838360005b83811015611942578082015181840152602081019050611927565b50505050905090810190601f16801561196f5780820380516001836020036101000a031916815260200191505b50955050505050506020604051808303818588803b151561198f57600080fd5b6125ee5a03f115156119a057600080fd5b505050506040518051905091505b509392505050565b6000806000809054906101000a900473ffffffffffffffffffffffffffffffffffffffff1673ffffffffffffffffffffffffffffffffffffffff161480611a2657506000611a246000809054906101000a900473ffffffffffffffffffffffffffffffffffffffff16612280565b145b15611a3757611a35600061228b565b505b6000809054906101000a900473ffffffffffffffffffffffffffffffffffffffff1673ffffffffffffffffffffffffffffffffffffffff166338cc48316000604051602001526040518163ffffffff167c0100000000000000000000000000000000000000000000000000000000028152600401602060405180830381600087803b1515611ac457600080fd5b6102c65a03f11515611ad557600080fd5b5050506040518051905073ffffffffffffffffffffffffffffffffffffffff16600160009054906101000a900473ffffffffffffffffffffffffffffffffffffffff1673ffffffffffffffffffffffffffffffffffffffff16141515611c1e576000809054906101000a900473ffffffffffffffffffffffffffffffffffffffff1673ffffffffffffffffffffffffffffffffffffffff166338cc48316000604051602001526040518163ffffffff167c0100000000000000000000000000000000000000000000000000000000028152600401602060405180830381600087803b1515611bc257600080fd5b6102c65a03f11515611bd357600080fd5b50505060405180519050600160006101000a81548173ffffffffffffffffffffffffffffffffffffffff021916908373ffffffffffffffffffffffffffffffffffffffff1602179055505b600160009054906101000a900473ffffffffffffffffffffffffffffffffffffffff1673ffffffffffffffffffffffffffffffffffffffff1663524f3889836000604051602001526040518263ffffffff167c01000000000000000000000000000000000000000000000000000000000281526004018080602001828103825283818151815260200191508051906020019080838360005b83811015611cd1578082015181840152602081019050611cb6565b50505050905090810190601f168015611cfe5780820380516001836020036101000a031916815260200191505b5092505050602060405180830381600087803b1515611d1c57600080fd5b6102c65a03f11515611d2d57600080fd5b505050604051805190509050919050565b60008060008060009054906101000a900473ffffffffffffffffffffffffffffffffffffffff1673ffffffffffffffffffffffffffffffffffffffff161480611db057506000611dae6000809054906101000a900473ffffffffffffffffffffffffffffffffffffffff16612280565b145b15611dc157611dbf600061228b565b505b6000809054906101000a900473ffffffffffffffffffffffffffffffffffffffff1673ffffffffffffffffffffffffffffffffffffffff166338cc48316000604051602001526040518163ffffffff167c0100000000000000000000000000000000000000000000000000000000028152600401602060405180830381600087803b1515611e4e57600080fd5b6102c65a03f11515611e5f57600080fd5b5050506040518051905073ffffffffffffffffffffffffffffffffffffffff16600160009054906101000a900473ffffffffffffffffffffffffffffffffffffffff1673ffffffffffffffffffffffffffffffffffffffff16141515611fa8576000809054906101000a900473ffffffffffffffffffffffffffffffffffffffff1673ffffffffffffffffffffffffffffffffffffffff166338cc48316000604051602001526040518163ffffffff167c0100000000000000000000000000000000000000000000000000000000028152600401602060405180830381600087803b1515611f4c57600080fd5b6102c65a03f11515611f5d57600080fd5b50505060405180519050600160006101000a81548173ffffffffffffffffffffffffffffffffffffffff021916908373ffffffffffffffffffffffffffffffffffffffff1602179055505b600160009054906101000a900473ffffffffffffffffffffffffffffffffffffffff1673ffffffffffffffffffffffffffffffffffffffff1663524f3889856000604051602001526040518263ffffffff167c01000000000000000000000000000000000000000000000000000000000281526004018080602001828103825283818151815260200191508051906020019080838360005b8381101561205b578082015181840152602081019050612040565b50505050905090810190601f1680156120885780820380516001836020036101000a031916815260200191505b5092505050602060405180830381600087803b15156120a657600080fd5b6102c65a03f115156120b757600080fd5b50505060405180519050905062030d403a02670de0b6b3a7640000018111156120e65760006001029150612279565b600160009054906101000a900473ffffffffffffffffffffffffffffffffffffffff1673ffffffffffffffffffffffffffffffffffffffff1663adf59f9982600087876000604051602001526040518563ffffffff167c0100000000000000000000000000000000000000000000000000000000028152600401808481526020018060200180602001838103835285818151815260200191508051906020019080838360005b838110156121a757808201518184015260208101905061218c565b50505050905090810190601f1680156121d45780820380516001836020036101000a031916815260200191505b50838103825284818151815260200191508051906020019080838360005b8381101561220d5780820151818401526020810190506121f2565b50505050905090810190601f16801561223a5780820380516001836020036101000a031916815260200191505b50955050505050506020604051808303818588803b151561225a57600080fd5b6125ee5a03f1151561226b57600080fd5b505050506040518051905091505b5092915050565b6000813b9050919050565b6000612295612596565b9050919050565b60006122a6612ad3565b60008060008693506000925060009150600090505b83518110156125775760307f01000000000000000000000000000000000000000000000000000000000000000284828151811015156122f657fe5b9060200101517f010000000000000000000000000000000000000000000000000000000000000090047f0100000000000000000000000000000000000000000000000000000000000000027effffffffffffffffffffffffffffffffffffffffffffffffffffffffffffff19161015801561240e575060397f010000000000000000000000000000000000000000000000000000000000000002848281518110151561239e57fe5b9060200101517f010000000000000000000000000000000000000000000000000000000000000090047f0100000000000000000000000000000000000000000000000000000000000000027effffffffffffffffffffffffffffffffffffffffffffffffffffffffffffff191611155b156124bf57811561243157600086141561242757612577565b8580600190039650505b600a830292506030848281518110151561244757fe5b9060200101517f010000000000000000000000000000000000000000000000000000000000000090047f0100000000000000000000000000000000000000000000000000000000000000027f01000000000000000000000000000000000000000000000000000000000000009004038301925061256a565b602e7f01000000000000000000000000000000000000000000000000000000000000000284828151811015156124f157fe5b9060200101517f010000000000000000000000000000000000000000000000000000000000000090047f0100000000000000000000000000000000000000000000000000000000000000027effffffffffffffffffffffffffffffffffffffffffffffffffffffffffffff1916141561256957600191505b5b80806001019150506122bb565b60008611156125895785600a0a830292505b8294505050505092915050565b6000806125b6731d3b2638a7cc9f2cb3d298a3da7a90b67e5506ed612280565b111561265757731d3b2638a7cc9f2cb3d298a3da7a90b67e5506ed6000806101000a81548173ffffffffffffffffffffffffffffffffffffffff021916908373ffffffffffffffffffffffffffffffffffffffff16021790555061264e6040805190810160405280600b81526020017f6574685f6d61696e6e6574000000000000000000000000000000000000000000815250612a25565b60019050612a22565b600061267673c03a2615d5efaf5f49f60b7bb6583eaec212fdf1612280565b11156127175773c03a2615d5efaf5f49f60b7bb6583eaec212fdf16000806101000a81548173ffffffffffffffffffffffffffffffffffffffff021916908373ffffffffffffffffffffffffffffffffffffffff16021790555061270e6040805190810160405280600c81526020017f6574685f726f707374656e330000000000000000000000000000000000000000815250612a25565b60019050612a22565b600061273673b7a07bcf2ba2f2703b24c0691b5278999c59ac7e612280565b11156127d75773b7a07bcf2ba2f2703b24c0691b5278999c59ac7e6000806101000a81548173ffffffffffffffffffffffffffffffffffffffff021916908373ffffffffffffffffffffffffffffffffffffffff1602179055506127ce6040805190810160405280600981526020017f6574685f6b6f76616e0000000000000000000000000000000000000000000000815250612a25565b60019050612a22565b60006127f673146500cfd35b22e4a392fe0adc06de1a1368ed48612280565b11156128975773146500cfd35b22e4a392fe0adc06de1a1368ed486000806101000a81548173ffffffffffffffffffffffffffffffffffffffff021916908373ffffffffffffffffffffffffffffffffffffffff16021790555061288e6040805190810160405280600b81526020017f6574685f72696e6b656279000000000000000000000000000000000000000000815250612a25565b60019050612a22565b60006128b6736f485c8bf6fc43ea212e93bbf8ce046c7f1cb475612280565b111561291957736f485c8bf6fc43ea212e93bbf8ce046c7f1cb4756000806101000a81548173ffffffffffffffffffffffffffffffffffffffff021916908373ffffffffffffffffffffffffffffffffffffffff16021790555060019050612a22565b60006129387320e12a1f859b3feae5fb2a0a32c18f5a65555bbf612280565b111561299b577320e12a1f859b3feae5fb2a0a32c18f5a65555bbf6000806101000a81548173ffffffffffffffffffffffffffffffffffffffff021916908373ffffffffffffffffffffffffffffffffffffffff16021790555060019050612a22565b60006129ba7351efaf4c8b3c9afbd5ab9f4bbc82784ab6ef8faa612280565b1115612a1d577351efaf4c8b3c9afbd5ab9f4bbc82784ab6ef8faa6000806101000a81548173ffffffffffffffffffffffffffffffffffffffff021916908373ffffffffffffffffffffffffffffffffffffffff16021790555060019050612a22565b600090505b90565b8060029080519060200190612a3b929190612a3f565b5050565b828054600181600116156101000203166002900490600052602060002090601f016020900481019282601f10612a8057805160ff1916838001178555612aae565b82800160010185558215612aae579182015b82811115612aad578251825591602001919060010190612a92565b5b509050612abb9190612ae7565b5090565b602060405190810160405280600081525090565b602060405190810160405280600081525090565b612b0991905b80821115612b05576000816000905550600101612aed565b5090565b905600a165627a7a72305820a823e0710f0bf0a483e63f33f651c9ab4e27cc91181bfc537fe3e8691300d9af0029",
  "source": "pragma solidity 0.4.19;\nimport \"./utils/usingOraclize.sol\";\n\n\ncontract USDETHOracle is usingOraclize {\n\n    string public ethUsdString;\n    uint public ethUsdUint;\n    uint public lastUpdated;\n\n    address public admin;\n    bool public lock = false;\n    uint256 public intervalInSeconds;\n    mapping(bytes32 => bool) public myidList;\n    string public url;\n\n    event LogOraclizeQuery(string description);\n    event LogNewPrice(string price);\n    event LogCalled(string desc);\n\n    function USDETHOracle(address _admin, uint256 _interval) public {\n        admin = _admin;\n        intervalInSeconds = _interval;\n        // oraclize_setProof(proofType_TLSNotary | proofStorage_IPFS);\n        // default on deploy\n        url = \"json(https://api.kraken.com/0/public/Ticker?pair=ETHUSD).result.XETHZUSD.c.0\";\n    }\n\n    modifier onlyAdmin {\n        require(msg.sender == admin);\n        _;\n    }\n\n    function () public payable {} // solhint-disable-line no-empty-blocks\n\n    function __callback(bytes32 myid, string result) public { // solhint-disable-line\n        require(msg.sender == oraclize_cbAddress());\n        require(myidList[myid] != true);\n        myidList[myid] = true; // mark this myid (default bool value is false)\n\n        LogCalled(\"Received callback\");\n        ethUsdString = result;\n        ethUsdUint = parseInt(result);\n        lastUpdated = now; // solhint-disable-line not-rely-on-time\n        LogNewPrice(ethUsdString);\n\n        if (!lock) {\n            LogOraclizeQuery(\"Oraclize query was sent, standing by for the answer..\");\n            oraclize_query(\n            intervalInSeconds,\n            \"URL\",\n            url\n            );\n        }\n    }\n\n    function update() public payable {\n        require(!lock);\n        if (oraclize_getPrice(\"URL\") > this.balance) {\n            LogOraclizeQuery(\"Oraclize query was NOT sent, please add some ETH to cover for the query fee\");\n        } else {\n            LogOraclizeQuery(\"Oraclize query was sent, standing by for the answer..\");\n            oraclize_query(\"URL\", url);\n        }\n    }\n\n    function updateInterval(uint256 _newInterval) public onlyAdmin {\n        intervalInSeconds = _newInterval;\n    }\n\n    function lockOracle() public onlyAdmin {\n        lock = !lock;\n    }\n\n    function changeURL(string _newURL) public onlyAdmin {\n        url = _newURL;\n    }\n\n    function changeAdmin(address _newAdmin) public onlyAdmin {\n        admin = _newAdmin;\n    }\n\n    function drainOracle() public onlyAdmin {\n        msg.sender.transfer(this.balance);\n    }\n\n    function getPrice() public constant returns (string) {\n        return ethUsdString;\n    }\n\n    function getUintPrice() public constant returns (uint) {\n        return ethUsdUint;\n    }\n}\n",
  "sourcePath": "/Users/simondlr/code/ethereum/ujo-contracts/oracle/contracts/USDETHOracle.sol",
  "compiler": {
    "name": "solc",
    "version": "0.4.19+commit.c4cbbb05.Emscripten.clang"
  },
  "schemaVersion": "1.0.1",
  "updatedAt": "2018-02-19T14:02:27.363Z"
}