{
  "contractName": "USDETHOracle",
  "abi": [
    {
      "constant": true,
      "inputs": [],
      "name": "url",
      "outputs": [
        {
          "name": "",
          "type": "string"
        }
      ],
      "payable": false,
      "stateMutability": "view",
      "type": "function"
    },
    {
      "constant": true,
      "inputs": [],
      "name": "ethUsdString",
      "outputs": [
        {
          "name": "",
          "type": "string"
        }
      ],
      "payable": false,
      "stateMutability": "view",
      "type": "function"
    },
    {
      "constant": true,
      "inputs": [],
      "name": "intervalInSeconds",
      "outputs": [
        {
          "name": "",
          "type": "uint256"
        }
      ],
      "payable": false,
      "stateMutability": "view",
      "type": "function"
    },
    {
      "constant": true,
      "inputs": [],
      "name": "pendingId",
      "outputs": [
        {
          "name": "",
          "type": "bytes32"
        }
      ],
      "payable": false,
      "stateMutability": "view",
      "type": "function"
    },
    {
      "constant": true,
      "inputs": [],
      "name": "lock",
      "outputs": [
        {
          "name": "",
          "type": "bool"
        }
      ],
      "payable": false,
      "stateMutability": "view",
      "type": "function"
    },
    {
      "constant": true,
      "inputs": [],
      "name": "admin",
      "outputs": [
        {
          "name": "",
          "type": "address"
        }
      ],
      "payable": false,
      "stateMutability": "view",
      "type": "function"
    },
    {
      "inputs": [
        {
          "name": "_admin",
          "type": "address"
        },
        {
          "name": "_interval",
          "type": "uint256"
        }
      ],
      "payable": false,
      "stateMutability": "nonpayable",
      "type": "constructor"
    },
    {
      "payable": true,
      "stateMutability": "payable",
      "type": "fallback"
    },
    {
      "anonymous": false,
      "inputs": [
        {
          "indexed": false,
          "name": "description",
          "type": "string"
        }
      ],
      "name": "LogOraclizeQuery",
      "type": "event"
    },
    {
      "anonymous": false,
      "inputs": [
        {
          "indexed": false,
          "name": "price",
          "type": "string"
        }
      ],
      "name": "LogNewPrice",
      "type": "event"
    },
    {
      "constant": false,
      "inputs": [
        {
          "name": "myid",
          "type": "bytes32"
        },
        {
          "name": "result",
          "type": "string"
        }
      ],
      "name": "__callback",
      "outputs": [],
      "payable": false,
      "stateMutability": "nonpayable",
      "type": "function"
    },
    {
      "constant": false,
      "inputs": [
        {
          "name": "myid",
          "type": "bytes32"
        },
        {
          "name": "result",
          "type": "string"
        },
        {
          "name": "proof",
          "type": "bytes"
        }
      ],
      "name": "__callback",
      "outputs": [],
      "payable": false,
      "stateMutability": "nonpayable",
      "type": "function"
    },
    {
      "constant": false,
      "inputs": [],
      "name": "update",
      "outputs": [],
      "payable": true,
      "stateMutability": "payable",
      "type": "function"
    },
    {
      "constant": false,
      "inputs": [
        {
          "name": "_newGasPrice",
          "type": "uint256"
        }
      ],
      "name": "setGasPrice",
      "outputs": [],
      "payable": false,
      "stateMutability": "nonpayable",
      "type": "function"
    },
    {
      "constant": false,
      "inputs": [
        {
          "name": "_newInterval",
          "type": "uint256"
        }
      ],
      "name": "updateInterval",
      "outputs": [],
      "payable": false,
      "stateMutability": "nonpayable",
      "type": "function"
    },
    {
      "constant": false,
      "inputs": [],
      "name": "lockOracle",
      "outputs": [],
      "payable": false,
      "stateMutability": "nonpayable",
      "type": "function"
    },
    {
      "constant": false,
      "inputs": [
        {
          "name": "_newURL",
          "type": "string"
        }
      ],
      "name": "changeURL",
      "outputs": [],
      "payable": false,
      "stateMutability": "nonpayable",
      "type": "function"
    },
    {
      "constant": false,
      "inputs": [
        {
          "name": "_newAdmin",
          "type": "address"
        }
      ],
      "name": "changeAdmin",
      "outputs": [],
      "payable": false,
      "stateMutability": "nonpayable",
      "type": "function"
    },
    {
      "constant": false,
      "inputs": [],
      "name": "drainOracle",
      "outputs": [],
      "payable": false,
      "stateMutability": "nonpayable",
      "type": "function"
    },
    {
      "constant": true,
      "inputs": [],
      "name": "getPrice",
      "outputs": [
        {
          "name": "",
          "type": "string"
        }
      ],
      "payable": false,
      "stateMutability": "view",
      "type": "function"
    }
  ],
  "bytecode": "0x60806040526000600660146101000a81548160ff02191690831515021790555060006001026008906000191690553480156200003a57600080fd5b506040516040806200327c833981018060405281019080805190602001909291908051906020019092919050505081600660006101000a81548173ffffffffffffffffffffffffffffffffffffffff021916908373ffffffffffffffffffffffffffffffffffffffff16021790555080600781905550620000cf6402540be40062000172640100000000026401000000009004565b608060405190810160405280604c81526020017f6a736f6e2868747470733a2f2f6170692e6b72616b656e2e636f6d2f302f707581526020017f626c69632f5469636b65723f706169723d455448555344292e726573756c742e81526020017f584554485a5553442e632e300000000000000000000000000000000000000000815250600990805190602001906200016992919062000a83565b50505062000b32565b60008060009054906101000a900473ffffffffffffffffffffffffffffffffffffffff1673ffffffffffffffffffffffffffffffffffffffff161480620001f357506000620001f16000809054906101000a900473ffffffffffffffffffffffffffffffffffffffff16620004e2640100000000026401000000009004565b145b156200021657620002146000620004ed640100000000026401000000009004565b505b6000809054906101000a900473ffffffffffffffffffffffffffffffffffffffff1673ffffffffffffffffffffffffffffffffffffffff166338cc48316040518163ffffffff167c0100000000000000000000000000000000000000000000000000000000028152600401602060405180830381600087803b1580156200029c57600080fd5b505af1158015620002b1573d6000803e3d6000fd5b505050506040513d6020811015620002c857600080fd5b810190808051906020019092919050505073ffffffffffffffffffffffffffffffffffffffff16600160009054906101000a900473ffffffffffffffffffffffffffffffffffffffff1673ffffffffffffffffffffffffffffffffffffffff1614151562000434576000809054906101000a900473ffffffffffffffffffffffffffffffffffffffff1673ffffffffffffffffffffffffffffffffffffffff166338cc48316040518163ffffffff167c0100000000000000000000000000000000000000000000000000000000028152600401602060405180830381600087803b158015620003b657600080fd5b505af1158015620003cb573d6000803e3d6000fd5b505050506040513d6020811015620003e257600080fd5b8101908080519060200190929190505050600160006101000a81548173ffffffffffffffffffffffffffffffffffffffff021916908373ffffffffffffffffffffffffffffffffffffffff1602179055505b600160009054906101000a900473ffffffffffffffffffffffffffffffffffffffff1673ffffffffffffffffffffffffffffffffffffffff1663ca6ad1e4826040518263ffffffff167c010000000000000000000000000000000000000000000000000000000002815260040180828152602001915050600060405180830381600087803b158015620004c657600080fd5b505af1158015620004db573d6000803e3d6000fd5b5050505050565b6000813b9050919050565b6000620005086200050f640100000000026401000000009004565b9050919050565b60008062000540731d3b2638a7cc9f2cb3d298a3da7a90b67e5506ed620004e2640100000000026401000000009004565b1115620005f457731d3b2638a7cc9f2cb3d298a3da7a90b67e5506ed6000806101000a81548173ffffffffffffffffffffffffffffffffffffffff021916908373ffffffffffffffffffffffffffffffffffffffff160217905550620005ea6040805190810160405280600b81526020017f6574685f6d61696e6e657400000000000000000000000000000000000000000081525062000a67640100000000026401000000009004565b6001905062000a64565b60006200062473c03a2615d5efaf5f49f60b7bb6583eaec212fdf1620004e2640100000000026401000000009004565b1115620006d85773c03a2615d5efaf5f49f60b7bb6583eaec212fdf16000806101000a81548173ffffffffffffffffffffffffffffffffffffffff021916908373ffffffffffffffffffffffffffffffffffffffff160217905550620006ce6040805190810160405280600c81526020017f6574685f726f707374656e33000000000000000000000000000000000000000081525062000a67640100000000026401000000009004565b6001905062000a64565b60006200070873b7a07bcf2ba2f2703b24c0691b5278999c59ac7e620004e2640100000000026401000000009004565b1115620007bc5773b7a07bcf2ba2f2703b24c0691b5278999c59ac7e6000806101000a81548173ffffffffffffffffffffffffffffffffffffffff021916908373ffffffffffffffffffffffffffffffffffffffff160217905550620007b26040805190810160405280600981526020017f6574685f6b6f76616e000000000000000000000000000000000000000000000081525062000a67640100000000026401000000009004565b6001905062000a64565b6000620007ec73146500cfd35b22e4a392fe0adc06de1a1368ed48620004e2640100000000026401000000009004565b1115620008a05773146500cfd35b22e4a392fe0adc06de1a1368ed486000806101000a81548173ffffffffffffffffffffffffffffffffffffffff021916908373ffffffffffffffffffffffffffffffffffffffff160217905550620008966040805190810160405280600b81526020017f6574685f72696e6b65627900000000000000000000000000000000000000000081525062000a67640100000000026401000000009004565b6001905062000a64565b6000620008d0736f485c8bf6fc43ea212e93bbf8ce046c7f1cb475620004e2640100000000026401000000009004565b11156200093557736f485c8bf6fc43ea212e93bbf8ce046c7f1cb4756000806101000a81548173ffffffffffffffffffffffffffffffffffffffff021916908373ffffffffffffffffffffffffffffffffffffffff1602179055506001905062000a64565b6000620009657320e12a1f859b3feae5fb2a0a32c18f5a65555bbf620004e2640100000000026401000000009004565b1115620009ca577320e12a1f859b3feae5fb2a0a32c18f5a65555bbf6000806101000a81548173ffffffffffffffffffffffffffffffffffffffff021916908373ffffffffffffffffffffffffffffffffffffffff1602179055506001905062000a64565b6000620009fa7351efaf4c8b3c9afbd5ab9f4bbc82784ab6ef8faa620004e2640100000000026401000000009004565b111562000a5f577351efaf4c8b3c9afbd5ab9f4bbc82784ab6ef8faa6000806101000a81548173ffffffffffffffffffffffffffffffffffffffff021916908373ffffffffffffffffffffffffffffffffffffffff1602179055506001905062000a64565b600090505b90565b806002908051906020019062000a7f92919062000a83565b5050565b828054600181600116156101000203166002900490600052602060002090601f016020900481019282601f1062000ac657805160ff191683800117855562000af7565b8280016001018555821562000af7579182015b8281111562000af657825182559160200191906001019062000ad9565b5b50905062000b06919062000b0a565b5090565b62000b2f91905b8082111562000b2b57600081600090555060010162000b11565b5090565b90565b61273a8062000b426000396000f3006080604052600436106100e6576000357c0100000000000000000000000000000000000000000000000000000000900463ffffffff1680630ba1fbfa146100e857806327dc297e146100ff57806338bbfa50146101765780635600f04f146102335780635cb6ce52146102c35780635d1b0088146102da57806364a1d7891461036a5780638f2839701461039557806398d5fdca146103d8578063a004128614610468578063a2e62045146104d1578063a8b5788f146104db578063bf1fe4201461050e578063d0f079261461053b578063f83d08ba14610568578063f851a44014610597575b005b3480156100f457600080fd5b506100fd6105ee565b005b34801561010b57600080fd5b506101746004803603810190808035600019169060200190929190803590602001908201803590602001908080601f0160208091040260200160405190810160405280939291908181526020018383808284378201915050505050509192919290505050610676565b005b34801561018257600080fd5b506102316004803603810190808035600019169060200190929190803590602001908201803590602001908080601f0160208091040260200160405190810160405280939291908181526020018383808284378201915050505050509192919290803590602001908201803590602001908080601f0160208091040260200160405190810160405280939291908181526020018383808284378201915050505050509192919290505050610912565b005b34801561023f57600080fd5b50610248610917565b6040518080602001828103825283818151815260200191508051906020019080838360005b8381101561028857808201518184015260208101905061026d565b50505050905090810190601f1680156102b55780820380516001836020036101000a031916815260200191505b509250505060405180910390f35b3480156102cf57600080fd5b506102d86109b5565b005b3480156102e657600080fd5b506102ef610a71565b6040518080602001828103825283818151815260200191508051906020019080838360005b8381101561032f578082015181840152602081019050610314565b50505050905090810190601f16801561035c5780820380516001836020036101000a031916815260200191505b509250505060405180910390f35b34801561037657600080fd5b5061037f610b0f565b6040518082815260200191505060405180910390f35b3480156103a157600080fd5b506103d6600480360381019080803573ffffffffffffffffffffffffffffffffffffffff169060200190929190505050610b15565b005b3480156103e457600080fd5b506103ed610bb5565b6040518080602001828103825283818151815260200191508051906020019080838360005b8381101561042d578082015181840152602081019050610412565b50505050905090810190601f16801561045a5780820380516001836020036101000a031916815260200191505b509250505060405180910390f35b34801561047457600080fd5b506104cf600480360381019080803590602001908201803590602001908080601f0160208091040260200160405190810160405280939291908181526020018383808284378201915050505050509192919290505050610c57565b005b6104d9610ccd565b005b3480156104e757600080fd5b506104f0610e96565b60405180826000191660001916815260200191505060405180910390f35b34801561051a57600080fd5b5061053960048036038101908080359060200190929190505050610e9c565b005b34801561054757600080fd5b5061056660048036038101908080359060200190929190505050610f04565b005b34801561057457600080fd5b5061057d610f6a565b604051808215151515815260200191505060405180910390f35b3480156105a357600080fd5b506105ac610f7d565b604051808273ffffffffffffffffffffffffffffffffffffffff1673ffffffffffffffffffffffffffffffffffffffff16815260200191505060405180910390f35b600660009054906101000a900473ffffffffffffffffffffffffffffffffffffffff1673ffffffffffffffffffffffffffffffffffffffff163373ffffffffffffffffffffffffffffffffffffffff1614151561064a57600080fd5b600660149054906101000a900460ff1615600660146101000a81548160ff021916908315150217905550565b61067e610fa3565b73ffffffffffffffffffffffffffffffffffffffff163373ffffffffffffffffffffffffffffffffffffffff161415156106b757600080fd5b8160001916600854600019161415156106cf57600080fd5b80600590805190602001906106e5929190612669565b507f3c77f4b04a28c401e5cef3c76564366e7448a83341f9a1d4bb2c26073cfe6a1d600560405180806020018281038252838181546001816001161561010002031660029004815260200191508054600181600116156101000203166002900480156107925780601f1061076757610100808354040283529160200191610792565b820191906000526020600020905b81548152906001019060200180831161077557829003601f168201915b50509250505060405180910390a1600660149054906101000a900460ff161515156107bc57600080fd5b7f0415a732c27dc65a8318b1f49677f1d76eb7365d60653ee494ed0897ef70abc86040518080602001828103825260108152602001807f4f7261636c697a6520517565726965640000000000000000000000000000000081525060200191505060405180910390a16109046007546040805190810160405280600381526020017f55524c000000000000000000000000000000000000000000000000000000000081525060098054600181600116156101000203166002900480601f0160208091040260200160405190810160405280929190818152602001828054600181600116156101000203166002900480156108f65780601f106108cb576101008083540402835291602001916108f6565b820191906000526020600020905b8154815290600101906020018083116108d957829003601f168201915b5050505050620249f0611301565b600881600019169055505050565b505050565b60098054600181600116156101000203166002900480601f0160208091040260200160405190810160405280929190818152602001828054600181600116156101000203166002900480156109ad5780601f10610982576101008083540402835291602001916109ad565b820191906000526020600020905b81548152906001019060200180831161099057829003601f168201915b505050505081565b600660009054906101000a900473ffffffffffffffffffffffffffffffffffffffff1673ffffffffffffffffffffffffffffffffffffffff163373ffffffffffffffffffffffffffffffffffffffff16141515610a1157600080fd5b3373ffffffffffffffffffffffffffffffffffffffff166108fc3073ffffffffffffffffffffffffffffffffffffffff16319081150290604051600060405180830381858888f19350505050158015610a6e573d6000803e3d6000fd5b50565b60058054600181600116156101000203166002900480601f016020809104026020016040519081016040528092919081815260200182805460018160011615610100020316600290048015610b075780601f10610adc57610100808354040283529160200191610b07565b820191906000526020600020905b815481529060010190602001808311610aea57829003601f168201915b505050505081565b60075481565b600660009054906101000a900473ffffffffffffffffffffffffffffffffffffffff1673ffffffffffffffffffffffffffffffffffffffff163373ffffffffffffffffffffffffffffffffffffffff16141515610b7157600080fd5b80600660006101000a81548173ffffffffffffffffffffffffffffffffffffffff021916908373ffffffffffffffffffffffffffffffffffffffff16021790555050565b606060058054600181600116156101000203166002900480601f016020809104026020016040519081016040528092919081815260200182805460018160011615610100020316600290048015610c4d5780601f10610c2257610100808354040283529160200191610c4d565b820191906000526020600020905b815481529060010190602001808311610c3057829003601f168201915b5050505050905090565b600660009054906101000a900473ffffffffffffffffffffffffffffffffffffffff1673ffffffffffffffffffffffffffffffffffffffff163373ffffffffffffffffffffffffffffffffffffffff16141515610cb357600080fd5b8060099080519060200190610cc9929190612669565b5050565b600660009054906101000a900473ffffffffffffffffffffffffffffffffffffffff1673ffffffffffffffffffffffffffffffffffffffff163373ffffffffffffffffffffffffffffffffffffffff16141515610d2957600080fd5b600660149054906101000a900460ff16151515610d4557600080fd5b7f0415a732c27dc65a8318b1f49677f1d76eb7365d60653ee494ed0897ef70abc86040518080602001828103825260108152602001807f4f7261636c697a6520517565726965640000000000000000000000000000000081525060200191505060405180910390a1610e8a6040805190810160405280600381526020017f55524c000000000000000000000000000000000000000000000000000000000081525060098054600181600116156101000203166002900480601f016020809104026020016040519081016040528092919081815260200182805460018160011615610100020316600290048015610e7c5780601f10610e5157610100808354040283529160200191610e7c565b820191906000526020600020905b815481529060010190602001808311610e5f57829003601f168201915b5050505050620249f06118b1565b60088160001916905550565b60085481565b600660009054906101000a900473ffffffffffffffffffffffffffffffffffffffff1673ffffffffffffffffffffffffffffffffffffffff163373ffffffffffffffffffffffffffffffffffffffff16141515610ef857600080fd5b610f0181611e61565b50565b600660009054906101000a900473ffffffffffffffffffffffffffffffffffffffff1673ffffffffffffffffffffffffffffffffffffffff163373ffffffffffffffffffffffffffffffffffffffff16141515610f6057600080fd5b8060078190555050565b600660149054906101000a900460ff1681565b600660009054906101000a900473ffffffffffffffffffffffffffffffffffffffff1681565b6000806000809054906101000a900473ffffffffffffffffffffffffffffffffffffffff1673ffffffffffffffffffffffffffffffffffffffff161480611013575060006110116000809054906101000a900473ffffffffffffffffffffffffffffffffffffffff166121a4565b145b156110245761102260006121af565b505b6000809054906101000a900473ffffffffffffffffffffffffffffffffffffffff1673ffffffffffffffffffffffffffffffffffffffff166338cc48316040518163ffffffff167c0100000000000000000000000000000000000000000000000000000000028152600401602060405180830381600087803b1580156110a957600080fd5b505af11580156110bd573d6000803e3d6000fd5b505050506040513d60208110156110d357600080fd5b810190808051906020019092919050505073ffffffffffffffffffffffffffffffffffffffff16600160009054906101000a900473ffffffffffffffffffffffffffffffffffffffff1673ffffffffffffffffffffffffffffffffffffffff1614151561123b576000809054906101000a900473ffffffffffffffffffffffffffffffffffffffff1673ffffffffffffffffffffffffffffffffffffffff166338cc48316040518163ffffffff167c0100000000000000000000000000000000000000000000000000000000028152600401602060405180830381600087803b1580156111bf57600080fd5b505af11580156111d3573d6000803e3d6000fd5b505050506040513d60208110156111e957600080fd5b8101908080519060200190929190505050600160006101000a81548173ffffffffffffffffffffffffffffffffffffffff021916908373ffffffffffffffffffffffffffffffffffffffff1602179055505b600160009054906101000a900473ffffffffffffffffffffffffffffffffffffffff1673ffffffffffffffffffffffffffffffffffffffff1663c281d19e6040518163ffffffff167c0100000000000000000000000000000000000000000000000000000000028152600401602060405180830381600087803b1580156112c157600080fd5b505af11580156112d5573d6000803e3d6000fd5b505050506040513d60208110156112eb57600080fd5b8101908080519060200190929190505050905090565b60008060008060009054906101000a900473ffffffffffffffffffffffffffffffffffffffff1673ffffffffffffffffffffffffffffffffffffffff161480611373575060006113716000809054906101000a900473ffffffffffffffffffffffffffffffffffffffff166121a4565b145b156113845761138260006121af565b505b6000809054906101000a900473ffffffffffffffffffffffffffffffffffffffff1673ffffffffffffffffffffffffffffffffffffffff166338cc48316040518163ffffffff167c0100000000000000000000000000000000000000000000000000000000028152600401602060405180830381600087803b15801561140957600080fd5b505af115801561141d573d6000803e3d6000fd5b505050506040513d602081101561143357600080fd5b810190808051906020019092919050505073ffffffffffffffffffffffffffffffffffffffff16600160009054906101000a900473ffffffffffffffffffffffffffffffffffffffff1673ffffffffffffffffffffffffffffffffffffffff1614151561159b576000809054906101000a900473ffffffffffffffffffffffffffffffffffffffff1673ffffffffffffffffffffffffffffffffffffffff166338cc48316040518163ffffffff167c0100000000000000000000000000000000000000000000000000000000028152600401602060405180830381600087803b15801561151f57600080fd5b505af1158015611533573d6000803e3d6000fd5b505050506040513d602081101561154957600080fd5b8101908080519060200190929190505050600160006101000a81548173ffffffffffffffffffffffffffffffffffffffff021916908373ffffffffffffffffffffffffffffffffffffffff1602179055505b600160009054906101000a900473ffffffffffffffffffffffffffffffffffffffff1673ffffffffffffffffffffffffffffffffffffffff16632ef3accc86856040518363ffffffff167c01000000000000000000000000000000000000000000000000000000000281526004018080602001838152602001828103825284818151815260200191508051906020019080838360005b8381101561164c578082015181840152602081019050611631565b50505050905090810190601f1680156116795780820380516001836020036101000a031916815260200191505b509350505050602060405180830381600087803b15801561169957600080fd5b505af11580156116ad573d6000803e3d6000fd5b505050506040513d60208110156116c357600080fd5b81019080805190602001909291905050509050823a02670de0b6b3a7640000018111156116f657600060010291506118a8565b600160009054906101000a900473ffffffffffffffffffffffffffffffffffffffff1673ffffffffffffffffffffffffffffffffffffffff1663c51be90f82888888886040518663ffffffff167c0100000000000000000000000000000000000000000000000000000000028152600401808581526020018060200180602001848152602001838103835286818151815260200191508051906020019080838360005b838110156117b4578082015181840152602081019050611799565b50505050905090810190601f1680156117e15780820380516001836020036101000a031916815260200191505b50838103825285818151815260200191508051906020019080838360005b8381101561181a5780820151818401526020810190506117ff565b50505050905090810190601f1680156118475780820380516001836020036101000a031916815260200191505b5096505050505050506020604051808303818588803b15801561186957600080fd5b505af115801561187d573d6000803e3d6000fd5b50505050506040513d602081101561189457600080fd5b810190808051906020019092919050505091505b50949350505050565b60008060008060009054906101000a900473ffffffffffffffffffffffffffffffffffffffff1673ffffffffffffffffffffffffffffffffffffffff161480611923575060006119216000809054906101000a900473ffffffffffffffffffffffffffffffffffffffff166121a4565b145b156119345761193260006121af565b505b6000809054906101000a900473ffffffffffffffffffffffffffffffffffffffff1673ffffffffffffffffffffffffffffffffffffffff166338cc48316040518163ffffffff167c0100000000000000000000000000000000000000000000000000000000028152600401602060405180830381600087803b1580156119b957600080fd5b505af11580156119cd573d6000803e3d6000fd5b505050506040513d60208110156119e357600080fd5b810190808051906020019092919050505073ffffffffffffffffffffffffffffffffffffffff16600160009054906101000a900473ffffffffffffffffffffffffffffffffffffffff1673ffffffffffffffffffffffffffffffffffffffff16141515611b4b576000809054906101000a900473ffffffffffffffffffffffffffffffffffffffff1673ffffffffffffffffffffffffffffffffffffffff166338cc48316040518163ffffffff167c0100000000000000000000000000000000000000000000000000000000028152600401602060405180830381600087803b158015611acf57600080fd5b505af1158015611ae3573d6000803e3d6000fd5b505050506040513d6020811015611af957600080fd5b8101908080519060200190929190505050600160006101000a81548173ffffffffffffffffffffffffffffffffffffffff021916908373ffffffffffffffffffffffffffffffffffffffff1602179055505b600160009054906101000a900473ffffffffffffffffffffffffffffffffffffffff1673ffffffffffffffffffffffffffffffffffffffff16632ef3accc86856040518363ffffffff167c01000000000000000000000000000000000000000000000000000000000281526004018080602001838152602001828103825284818151815260200191508051906020019080838360005b83811015611bfc578082015181840152602081019050611be1565b50505050905090810190601f168015611c295780820380516001836020036101000a031916815260200191505b509350505050602060405180830381600087803b158015611c4957600080fd5b505af1158015611c5d573d6000803e3d6000fd5b505050506040513d6020811015611c7357600080fd5b81019080805190602001909291905050509050823a02670de0b6b3a764000001811115611ca65760006001029150611e59565b600160009054906101000a900473ffffffffffffffffffffffffffffffffffffffff1673ffffffffffffffffffffffffffffffffffffffff1663c51be90f8260008888886040518663ffffffff167c0100000000000000000000000000000000000000000000000000000000028152600401808581526020018060200180602001848152602001838103835286818151815260200191508051906020019080838360005b83811015611d65578082015181840152602081019050611d4a565b50505050905090810190601f168015611d925780820380516001836020036101000a031916815260200191505b50838103825285818151815260200191508051906020019080838360005b83811015611dcb578082015181840152602081019050611db0565b50505050905090810190601f168015611df85780820380516001836020036101000a031916815260200191505b5096505050505050506020604051808303818588803b158015611e1a57600080fd5b505af1158015611e2e573d6000803e3d6000fd5b50505050506040513d6020811015611e4557600080fd5b810190808051906020019092919050505091505b509392505050565b60008060009054906101000a900473ffffffffffffffffffffffffffffffffffffffff1673ffffffffffffffffffffffffffffffffffffffff161480611ed057506000611ece6000809054906101000a900473ffffffffffffffffffffffffffffffffffffffff166121a4565b145b15611ee157611edf60006121af565b505b6000809054906101000a900473ffffffffffffffffffffffffffffffffffffffff1673ffffffffffffffffffffffffffffffffffffffff166338cc48316040518163ffffffff167c0100000000000000000000000000000000000000000000000000000000028152600401602060405180830381600087803b158015611f6657600080fd5b505af1158015611f7a573d6000803e3d6000fd5b505050506040513d6020811015611f9057600080fd5b810190808051906020019092919050505073ffffffffffffffffffffffffffffffffffffffff16600160009054906101000a900473ffffffffffffffffffffffffffffffffffffffff1673ffffffffffffffffffffffffffffffffffffffff161415156120f8576000809054906101000a900473ffffffffffffffffffffffffffffffffffffffff1673ffffffffffffffffffffffffffffffffffffffff166338cc48316040518163ffffffff167c0100000000000000000000000000000000000000000000000000000000028152600401602060405180830381600087803b15801561207c57600080fd5b505af1158015612090573d6000803e3d6000fd5b505050506040513d60208110156120a657600080fd5b8101908080519060200190929190505050600160006101000a81548173ffffffffffffffffffffffffffffffffffffffff021916908373ffffffffffffffffffffffffffffffffffffffff1602179055505b600160009054906101000a900473ffffffffffffffffffffffffffffffffffffffff1673ffffffffffffffffffffffffffffffffffffffff1663ca6ad1e4826040518263ffffffff167c010000000000000000000000000000000000000000000000000000000002815260040180828152602001915050600060405180830381600087803b15801561218957600080fd5b505af115801561219d573d6000803e3d6000fd5b5050505050565b6000813b9050919050565b60006121b96121c0565b9050919050565b6000806121e0731d3b2638a7cc9f2cb3d298a3da7a90b67e5506ed6121a4565b111561228157731d3b2638a7cc9f2cb3d298a3da7a90b67e5506ed6000806101000a81548173ffffffffffffffffffffffffffffffffffffffff021916908373ffffffffffffffffffffffffffffffffffffffff1602179055506122786040805190810160405280600b81526020017f6574685f6d61696e6e657400000000000000000000000000000000000000000081525061264f565b6001905061264c565b60006122a073c03a2615d5efaf5f49f60b7bb6583eaec212fdf16121a4565b11156123415773c03a2615d5efaf5f49f60b7bb6583eaec212fdf16000806101000a81548173ffffffffffffffffffffffffffffffffffffffff021916908373ffffffffffffffffffffffffffffffffffffffff1602179055506123386040805190810160405280600c81526020017f6574685f726f707374656e33000000000000000000000000000000000000000081525061264f565b6001905061264c565b600061236073b7a07bcf2ba2f2703b24c0691b5278999c59ac7e6121a4565b11156124015773b7a07bcf2ba2f2703b24c0691b5278999c59ac7e6000806101000a81548173ffffffffffffffffffffffffffffffffffffffff021916908373ffffffffffffffffffffffffffffffffffffffff1602179055506123f86040805190810160405280600981526020017f6574685f6b6f76616e000000000000000000000000000000000000000000000081525061264f565b6001905061264c565b600061242073146500cfd35b22e4a392fe0adc06de1a1368ed486121a4565b11156124c15773146500cfd35b22e4a392fe0adc06de1a1368ed486000806101000a81548173ffffffffffffffffffffffffffffffffffffffff021916908373ffffffffffffffffffffffffffffffffffffffff1602179055506124b86040805190810160405280600b81526020017f6574685f72696e6b65627900000000000000000000000000000000000000000081525061264f565b6001905061264c565b60006124e0736f485c8bf6fc43ea212e93bbf8ce046c7f1cb4756121a4565b111561254357736f485c8bf6fc43ea212e93bbf8ce046c7f1cb4756000806101000a81548173ffffffffffffffffffffffffffffffffffffffff021916908373ffffffffffffffffffffffffffffffffffffffff1602179055506001905061264c565b60006125627320e12a1f859b3feae5fb2a0a32c18f5a65555bbf6121a4565b11156125c5577320e12a1f859b3feae5fb2a0a32c18f5a65555bbf6000806101000a81548173ffffffffffffffffffffffffffffffffffffffff021916908373ffffffffffffffffffffffffffffffffffffffff1602179055506001905061264c565b60006125e47351efaf4c8b3c9afbd5ab9f4bbc82784ab6ef8faa6121a4565b1115612647577351efaf4c8b3c9afbd5ab9f4bbc82784ab6ef8faa6000806101000a81548173ffffffffffffffffffffffffffffffffffffffff021916908373ffffffffffffffffffffffffffffffffffffffff1602179055506001905061264c565b600090505b90565b8060029080519060200190612665929190612669565b5050565b828054600181600116156101000203166002900490600052602060002090601f016020900481019282601f106126aa57805160ff19168380011785556126d8565b828001600101855582156126d8579182015b828111156126d75782518255916020019190600101906126bc565b5b5090506126e591906126e9565b5090565b61270b91905b808211156127075760008160009055506001016126ef565b5090565b905600a165627a7a72305820cf61076d9137725f3214eae50929147b322e0051251cdf6b6530226d2eea08860029",
  "source": "pragma solidity ^0.4.23;\nimport \"./utils/usingOraclize.sol\";\n\n\ncontract USDETHOracle is usingOraclize {\n\n    string public ethUsdString;\n\n    address public admin;\n    bool public lock = false;\n    uint256 public intervalInSeconds;\n    bytes32 public pendingId = 0;\n    string public url;\n\n    event LogOraclizeQuery(string description);\n    event LogNewPrice(string price);\n\n    function USDETHOracle(address _admin, uint256 _interval) public {\n        admin = _admin;\n        intervalInSeconds = _interval;\n        oraclize_setCustomGasPrice(10000000000); // 10 gwei default\n        // default on deploy\n        url = \"json(https://api.kraken.com/0/public/Ticker?pair=ETHUSD).result.XETHZUSD.c.0\";\n    }\n\n    modifier onlyAdmin {\n        require(msg.sender == admin);\n        _;\n    }\n\n    // anyone should be able to fund the oracle if necessary\n    function () public payable {} // solhint-disable-line no-empty-blocks\n\n    function __callback(bytes32 myid, string result) public { // solhint-disable-line\n        require(msg.sender == oraclize_cbAddress());\n        require(pendingId == myid);\n\n        ethUsdString = result;\n        emit LogNewPrice(ethUsdString);\n\n        require(!lock);\n        emit LogOraclizeQuery(\"Oraclize Queried\");\n        pendingId = oraclize_query(intervalInSeconds, \"URL\", url, 150000);\n    }\n\n    function update() public payable onlyAdmin {\n        require(!lock);\n        emit LogOraclizeQuery(\"Oraclize Queried\");\n        pendingId = oraclize_query(\"URL\", url, 150000);\n    }\n\n    function setGasPrice(uint256 _newGasPrice) public onlyAdmin {\n        oraclize_setCustomGasPrice(_newGasPrice); // 10 gwei default\n    }\n\n    function updateInterval(uint256 _newInterval) public onlyAdmin {\n        intervalInSeconds = _newInterval;\n    }\n\n    function lockOracle() public onlyAdmin {\n        lock = !lock;\n    }\n\n    function changeURL(string _newURL) public onlyAdmin {\n        url = _newURL;\n    }\n\n    function changeAdmin(address _newAdmin) public onlyAdmin {\n        admin = _newAdmin;\n    }\n\n    function drainOracle() public onlyAdmin {\n        msg.sender.transfer(this.balance);\n    }\n\n    function getPrice() public constant returns (string) {\n        return ethUsdString;\n    }\n\n    /* function getUintPrice() public constant returns (uint) {\n        return ethUsdUint;\n    }*/\n}\n",
  "sourcePath": "/Users/simondlr/code/ethereum/contracts-oracle/contracts/USDETHOracle.sol",
  "compiler": {
    "name": "solc",
    "version": "0.4.23+commit.124ca40d.Emscripten.clang"
  },
  "schemaVersion": "2.0.0",
  "updatedAt": "2018-06-11T15:15:25.607Z"
}