{
  "contractName": "USDETHOracle",
  "abi": [
    {
      "constant": true,
      "inputs": [],
      "name": "url",
      "outputs": [
        {
          "name": "",
          "type": "string"
        }
      ],
      "payable": false,
      "stateMutability": "view",
      "type": "function"
    },
    {
      "constant": true,
      "inputs": [],
      "name": "ethUsdString",
      "outputs": [
        {
          "name": "",
          "type": "string"
        }
      ],
      "payable": false,
      "stateMutability": "view",
      "type": "function"
    },
    {
      "constant": true,
      "inputs": [],
      "name": "intervalInSeconds",
      "outputs": [
        {
          "name": "",
          "type": "uint256"
        }
      ],
      "payable": false,
      "stateMutability": "view",
      "type": "function"
    },
    {
      "constant": true,
      "inputs": [],
      "name": "pendingId",
      "outputs": [
        {
          "name": "",
          "type": "bytes32"
        }
      ],
      "payable": false,
      "stateMutability": "view",
      "type": "function"
    },
    {
      "constant": true,
      "inputs": [],
      "name": "lock",
      "outputs": [
        {
          "name": "",
          "type": "bool"
        }
      ],
      "payable": false,
      "stateMutability": "view",
      "type": "function"
    },
    {
      "constant": true,
      "inputs": [],
      "name": "admin",
      "outputs": [
        {
          "name": "",
          "type": "address"
        }
      ],
      "payable": false,
      "stateMutability": "view",
      "type": "function"
    },
    {
      "inputs": [
        {
          "name": "_admin",
          "type": "address"
        },
        {
          "name": "_interval",
          "type": "uint256"
        }
      ],
      "payable": false,
      "stateMutability": "nonpayable",
      "type": "constructor"
    },
    {
      "payable": true,
      "stateMutability": "payable",
      "type": "fallback"
    },
    {
      "anonymous": false,
      "inputs": [
        {
          "indexed": false,
          "name": "description",
          "type": "string"
        }
      ],
      "name": "LogOraclizeQuery",
      "type": "event"
    },
    {
      "anonymous": false,
      "inputs": [
        {
          "indexed": false,
          "name": "price",
          "type": "string"
        }
      ],
      "name": "LogNewPrice",
      "type": "event"
    },
    {
      "constant": false,
      "inputs": [
        {
          "name": "myid",
          "type": "bytes32"
        },
        {
          "name": "result",
          "type": "string"
        },
        {
          "name": "proof",
          "type": "bytes"
        }
      ],
      "name": "__callback",
      "outputs": [],
      "payable": false,
      "stateMutability": "nonpayable",
      "type": "function"
    },
    {
      "constant": false,
      "inputs": [
        {
          "name": "myid",
          "type": "bytes32"
        },
        {
          "name": "result",
          "type": "string"
        }
      ],
      "name": "__callback",
      "outputs": [],
      "payable": false,
      "stateMutability": "nonpayable",
      "type": "function"
    },
    {
      "constant": false,
      "inputs": [],
      "name": "update",
      "outputs": [],
      "payable": true,
      "stateMutability": "payable",
      "type": "function"
    },
    {
      "constant": false,
      "inputs": [
        {
          "name": "_newGasPrice",
          "type": "uint256"
        }
      ],
      "name": "setGasPrice",
      "outputs": [],
      "payable": false,
      "stateMutability": "nonpayable",
      "type": "function"
    },
    {
      "constant": false,
      "inputs": [
        {
          "name": "_newInterval",
          "type": "uint256"
        }
      ],
      "name": "updateInterval",
      "outputs": [],
      "payable": false,
      "stateMutability": "nonpayable",
      "type": "function"
    },
    {
      "constant": false,
      "inputs": [],
      "name": "lockOracle",
      "outputs": [],
      "payable": false,
      "stateMutability": "nonpayable",
      "type": "function"
    },
    {
      "constant": false,
      "inputs": [
        {
          "name": "_newURL",
          "type": "string"
        }
      ],
      "name": "changeURL",
      "outputs": [],
      "payable": false,
      "stateMutability": "nonpayable",
      "type": "function"
    },
    {
      "constant": false,
      "inputs": [
        {
          "name": "_newAdmin",
          "type": "address"
        }
      ],
      "name": "changeAdmin",
      "outputs": [],
      "payable": false,
      "stateMutability": "nonpayable",
      "type": "function"
    },
    {
      "constant": false,
      "inputs": [],
      "name": "drainOracle",
      "outputs": [],
      "payable": false,
      "stateMutability": "nonpayable",
      "type": "function"
    },
    {
      "constant": true,
      "inputs": [],
      "name": "getPrice",
      "outputs": [
        {
          "name": "",
          "type": "string"
        }
      ],
      "payable": false,
      "stateMutability": "view",
      "type": "function"
    },
    {
      "constant": true,
      "inputs": [],
      "name": "getUintPrice",
      "outputs": [
        {
          "name": "",
          "type": "uint256"
        }
      ],
      "payable": false,
      "stateMutability": "view",
      "type": "function"
    }
  ],
  "bytecode": "0x60806040526000600660146101000a81548160ff02191690831515021790555060006001026008906000191690553480156200003a57600080fd5b5060405160408062003664833981018060405281019080805190602001909291908051906020019092919050505081600660006101000a81548173ffffffffffffffffffffffffffffffffffffffff021916908373ffffffffffffffffffffffffffffffffffffffff16021790555080600781905550620000cf6402540be40062000172640100000000026401000000009004565b608060405190810160405280604c81526020017f6a736f6e2868747470733a2f2f6170692e6b72616b656e2e636f6d2f302f707581526020017f626c69632f5469636b65723f706169723d455448555344292e726573756c742e81526020017f584554485a5553442e632e300000000000000000000000000000000000000000815250600990805190602001906200016992919062000a83565b50505062000b32565b60008060009054906101000a900473ffffffffffffffffffffffffffffffffffffffff1673ffffffffffffffffffffffffffffffffffffffff161480620001f357506000620001f16000809054906101000a900473ffffffffffffffffffffffffffffffffffffffff16620004e2640100000000026401000000009004565b145b156200021657620002146000620004ed640100000000026401000000009004565b505b6000809054906101000a900473ffffffffffffffffffffffffffffffffffffffff1673ffffffffffffffffffffffffffffffffffffffff166338cc48316040518163ffffffff167c0100000000000000000000000000000000000000000000000000000000028152600401602060405180830381600087803b1580156200029c57600080fd5b505af1158015620002b1573d6000803e3d6000fd5b505050506040513d6020811015620002c857600080fd5b810190808051906020019092919050505073ffffffffffffffffffffffffffffffffffffffff16600160009054906101000a900473ffffffffffffffffffffffffffffffffffffffff1673ffffffffffffffffffffffffffffffffffffffff1614151562000434576000809054906101000a900473ffffffffffffffffffffffffffffffffffffffff1673ffffffffffffffffffffffffffffffffffffffff166338cc48316040518163ffffffff167c0100000000000000000000000000000000000000000000000000000000028152600401602060405180830381600087803b158015620003b657600080fd5b505af1158015620003cb573d6000803e3d6000fd5b505050506040513d6020811015620003e257600080fd5b8101908080519060200190929190505050600160006101000a81548173ffffffffffffffffffffffffffffffffffffffff021916908373ffffffffffffffffffffffffffffffffffffffff1602179055505b600160009054906101000a900473ffffffffffffffffffffffffffffffffffffffff1673ffffffffffffffffffffffffffffffffffffffff1663ca6ad1e4826040518263ffffffff167c010000000000000000000000000000000000000000000000000000000002815260040180828152602001915050600060405180830381600087803b158015620004c657600080fd5b505af1158015620004db573d6000803e3d6000fd5b5050505050565b6000813b9050919050565b6000620005086200050f640100000000026401000000009004565b9050919050565b60008062000540731d3b2638a7cc9f2cb3d298a3da7a90b67e5506ed620004e2640100000000026401000000009004565b1115620005f457731d3b2638a7cc9f2cb3d298a3da7a90b67e5506ed6000806101000a81548173ffffffffffffffffffffffffffffffffffffffff021916908373ffffffffffffffffffffffffffffffffffffffff160217905550620005ea6040805190810160405280600b81526020017f6574685f6d61696e6e657400000000000000000000000000000000000000000081525062000a67640100000000026401000000009004565b6001905062000a64565b60006200062473c03a2615d5efaf5f49f60b7bb6583eaec212fdf1620004e2640100000000026401000000009004565b1115620006d85773c03a2615d5efaf5f49f60b7bb6583eaec212fdf16000806101000a81548173ffffffffffffffffffffffffffffffffffffffff021916908373ffffffffffffffffffffffffffffffffffffffff160217905550620006ce6040805190810160405280600c81526020017f6574685f726f707374656e33000000000000000000000000000000000000000081525062000a67640100000000026401000000009004565b6001905062000a64565b60006200070873b7a07bcf2ba2f2703b24c0691b5278999c59ac7e620004e2640100000000026401000000009004565b1115620007bc5773b7a07bcf2ba2f2703b24c0691b5278999c59ac7e6000806101000a81548173ffffffffffffffffffffffffffffffffffffffff021916908373ffffffffffffffffffffffffffffffffffffffff160217905550620007b26040805190810160405280600981526020017f6574685f6b6f76616e000000000000000000000000000000000000000000000081525062000a67640100000000026401000000009004565b6001905062000a64565b6000620007ec73146500cfd35b22e4a392fe0adc06de1a1368ed48620004e2640100000000026401000000009004565b1115620008a05773146500cfd35b22e4a392fe0adc06de1a1368ed486000806101000a81548173ffffffffffffffffffffffffffffffffffffffff021916908373ffffffffffffffffffffffffffffffffffffffff160217905550620008966040805190810160405280600b81526020017f6574685f72696e6b65627900000000000000000000000000000000000000000081525062000a67640100000000026401000000009004565b6001905062000a64565b6000620008d0736f485c8bf6fc43ea212e93bbf8ce046c7f1cb475620004e2640100000000026401000000009004565b11156200093557736f485c8bf6fc43ea212e93bbf8ce046c7f1cb4756000806101000a81548173ffffffffffffffffffffffffffffffffffffffff021916908373ffffffffffffffffffffffffffffffffffffffff1602179055506001905062000a64565b6000620009657320e12a1f859b3feae5fb2a0a32c18f5a65555bbf620004e2640100000000026401000000009004565b1115620009ca577320e12a1f859b3feae5fb2a0a32c18f5a65555bbf6000806101000a81548173ffffffffffffffffffffffffffffffffffffffff021916908373ffffffffffffffffffffffffffffffffffffffff1602179055506001905062000a64565b6000620009fa7351efaf4c8b3c9afbd5ab9f4bbc82784ab6ef8faa620004e2640100000000026401000000009004565b111562000a5f577351efaf4c8b3c9afbd5ab9f4bbc82784ab6ef8faa6000806101000a81548173ffffffffffffffffffffffffffffffffffffffff021916908373ffffffffffffffffffffffffffffffffffffffff1602179055506001905062000a64565b600090505b90565b806002908051906020019062000a7f92919062000a83565b5050565b828054600181600116156101000203166002900490600052602060002090601f016020900481019282601f1062000ac657805160ff191683800117855562000af7565b8280016001018555821562000af7579182015b8281111562000af657825182559160200191906001019062000ad9565b5b50905062000b06919062000b0a565b5090565b62000b2f91905b8082111562000b2b57600081600090555060010162000b11565b5090565b90565b612b228062000b426000396000f3006080604052600436106100f1576000357c0100000000000000000000000000000000000000000000000000000000900463ffffffff1680630ba1fbfa146100f357806327dc297e1461010a57806338bbfa50146101815780635600f04f1461023e57806358836e9f146102ce5780635cb6ce52146102f95780635d1b00881461031057806364a1d789146103a05780638f283970146103cb57806398d5fdca1461040e578063a00412861461049e578063a2e6204514610507578063a8b5788f14610511578063bf1fe42014610544578063d0f0792614610571578063f83d08ba1461059e578063f851a440146105cd575b005b3480156100ff57600080fd5b50610108610624565b005b34801561011657600080fd5b5061017f6004803603810190808035600019169060200190929190803590602001908201803590602001908080601f01602080910402602001604051908101604052809392919081815260200183838082843782019150505050505091929192905050506106ac565b005b34801561018d57600080fd5b5061023c6004803603810190808035600019169060200190929190803590602001908201803590602001908080601f0160208091040260200160405190810160405280939291908181526020018383808284378201915050505050509192919290803590602001908201803590602001908080601f0160208091040260200160405190810160405280939291908181526020018383808284378201915050505050509192919290505050610948565b005b34801561024a57600080fd5b5061025361094d565b6040518080602001828103825283818151815260200191508051906020019080838360005b83811015610293578082015181840152602081019050610278565b50505050905090810190601f1680156102c05780820380516001836020036101000a031916815260200191505b509250505060405180910390f35b3480156102da57600080fd5b506102e36109eb565b6040518082815260200191505060405180910390f35b34801561030557600080fd5b5061030e610a95565b005b34801561031c57600080fd5b50610325610b51565b6040518080602001828103825283818151815260200191508051906020019080838360005b8381101561036557808201518184015260208101905061034a565b50505050905090810190601f1680156103925780820380516001836020036101000a031916815260200191505b509250505060405180910390f35b3480156103ac57600080fd5b506103b5610bef565b6040518082815260200191505060405180910390f35b3480156103d757600080fd5b5061040c600480360381019080803573ffffffffffffffffffffffffffffffffffffffff169060200190929190505050610bf5565b005b34801561041a57600080fd5b50610423610c95565b6040518080602001828103825283818151815260200191508051906020019080838360005b83811015610463578082015181840152602081019050610448565b50505050905090810190601f1680156104905780820380516001836020036101000a031916815260200191505b509250505060405180910390f35b3480156104aa57600080fd5b50610505600480360381019080803590602001908201803590602001908080601f0160208091040260200160405190810160405280939291908181526020018383808284378201915050505050509192919290505050610d37565b005b61050f610dad565b005b34801561051d57600080fd5b50610526610f76565b60405180826000191660001916815260200191505060405180910390f35b34801561055057600080fd5b5061056f60048036038101908080359060200190929190505050610f7c565b005b34801561057d57600080fd5b5061059c60048036038101908080359060200190929190505050610fe4565b005b3480156105aa57600080fd5b506105b361104a565b604051808215151515815260200191505060405180910390f35b3480156105d957600080fd5b506105e261105d565b604051808273ffffffffffffffffffffffffffffffffffffffff1673ffffffffffffffffffffffffffffffffffffffff16815260200191505060405180910390f35b600660009054906101000a900473ffffffffffffffffffffffffffffffffffffffff1673ffffffffffffffffffffffffffffffffffffffff163373ffffffffffffffffffffffffffffffffffffffff1614151561068057600080fd5b600660149054906101000a900460ff1615600660146101000a81548160ff021916908315150217905550565b6106b4611083565b73ffffffffffffffffffffffffffffffffffffffff163373ffffffffffffffffffffffffffffffffffffffff161415156106ed57600080fd5b81600019166008546000191614151561070557600080fd5b806005908051906020019061071b929190612a51565b507f3c77f4b04a28c401e5cef3c76564366e7448a83341f9a1d4bb2c26073cfe6a1d600560405180806020018281038252838181546001816001161561010002031660029004815260200191508054600181600116156101000203166002900480156107c85780601f1061079d576101008083540402835291602001916107c8565b820191906000526020600020905b8154815290600101906020018083116107ab57829003601f168201915b50509250505060405180910390a1600660149054906101000a900460ff161515156107f257600080fd5b7f0415a732c27dc65a8318b1f49677f1d76eb7365d60653ee494ed0897ef70abc86040518080602001828103825260108152602001807f4f7261636c697a6520517565726965640000000000000000000000000000000081525060200191505060405180910390a161093a6007546040805190810160405280600381526020017f55524c000000000000000000000000000000000000000000000000000000000081525060098054600181600116156101000203166002900480601f01602080910402602001604051908101604052809291908181526020018280546001816001161561010002031660029004801561092c5780601f106109015761010080835404028352916020019161092c565b820191906000526020600020905b81548152906001019060200180831161090f57829003601f168201915b5050505050620249f06113e1565b600881600019169055505050565b505050565b60098054600181600116156101000203166002900480601f0160208091040260200160405190810160405280929190818152602001828054600181600116156101000203166002900480156109e35780601f106109b8576101008083540402835291602001916109e3565b820191906000526020600020905b8154815290600101906020018083116109c657829003601f168201915b505050505081565b6000610a9060058054600181600116156101000203166002900480601f016020809104026020016040519081016040528092919081815260200182805460018160011615610100020316600290048015610a865780601f10610a5b57610100808354040283529160200191610a86565b820191906000526020600020905b815481529060010190602001808311610a6957829003601f168201915b5050505050611991565b905090565b600660009054906101000a900473ffffffffffffffffffffffffffffffffffffffff1673ffffffffffffffffffffffffffffffffffffffff163373ffffffffffffffffffffffffffffffffffffffff16141515610af157600080fd5b3373ffffffffffffffffffffffffffffffffffffffff166108fc3073ffffffffffffffffffffffffffffffffffffffff16319081150290604051600060405180830381858888f19350505050158015610b4e573d6000803e3d6000fd5b50565b60058054600181600116156101000203166002900480601f016020809104026020016040519081016040528092919081815260200182805460018160011615610100020316600290048015610be75780601f10610bbc57610100808354040283529160200191610be7565b820191906000526020600020905b815481529060010190602001808311610bca57829003601f168201915b505050505081565b60075481565b600660009054906101000a900473ffffffffffffffffffffffffffffffffffffffff1673ffffffffffffffffffffffffffffffffffffffff163373ffffffffffffffffffffffffffffffffffffffff16141515610c5157600080fd5b80600660006101000a81548173ffffffffffffffffffffffffffffffffffffffff021916908373ffffffffffffffffffffffffffffffffffffffff16021790555050565b606060058054600181600116156101000203166002900480601f016020809104026020016040519081016040528092919081815260200182805460018160011615610100020316600290048015610d2d5780601f10610d0257610100808354040283529160200191610d2d565b820191906000526020600020905b815481529060010190602001808311610d1057829003601f168201915b5050505050905090565b600660009054906101000a900473ffffffffffffffffffffffffffffffffffffffff1673ffffffffffffffffffffffffffffffffffffffff163373ffffffffffffffffffffffffffffffffffffffff16141515610d9357600080fd5b8060099080519060200190610da9929190612a51565b5050565b600660009054906101000a900473ffffffffffffffffffffffffffffffffffffffff1673ffffffffffffffffffffffffffffffffffffffff163373ffffffffffffffffffffffffffffffffffffffff16141515610e0957600080fd5b600660149054906101000a900460ff16151515610e2557600080fd5b7f0415a732c27dc65a8318b1f49677f1d76eb7365d60653ee494ed0897ef70abc86040518080602001828103825260108152602001807f4f7261636c697a6520517565726965640000000000000000000000000000000081525060200191505060405180910390a1610f6a6040805190810160405280600381526020017f55524c000000000000000000000000000000000000000000000000000000000081525060098054600181600116156101000203166002900480601f016020809104026020016040519081016040528092919081815260200182805460018160011615610100020316600290048015610f5c5780601f10610f3157610100808354040283529160200191610f5c565b820191906000526020600020905b815481529060010190602001808311610f3f57829003601f168201915b5050505050620249f06119a5565b60088160001916905550565b60085481565b600660009054906101000a900473ffffffffffffffffffffffffffffffffffffffff1673ffffffffffffffffffffffffffffffffffffffff163373ffffffffffffffffffffffffffffffffffffffff16141515610fd857600080fd5b610fe181611f55565b50565b600660009054906101000a900473ffffffffffffffffffffffffffffffffffffffff1673ffffffffffffffffffffffffffffffffffffffff163373ffffffffffffffffffffffffffffffffffffffff1614151561104057600080fd5b8060078190555050565b600660149054906101000a900460ff1681565b600660009054906101000a900473ffffffffffffffffffffffffffffffffffffffff1681565b6000806000809054906101000a900473ffffffffffffffffffffffffffffffffffffffff1673ffffffffffffffffffffffffffffffffffffffff1614806110f3575060006110f16000809054906101000a900473ffffffffffffffffffffffffffffffffffffffff16612298565b145b156111045761110260006122a3565b505b6000809054906101000a900473ffffffffffffffffffffffffffffffffffffffff1673ffffffffffffffffffffffffffffffffffffffff166338cc48316040518163ffffffff167c0100000000000000000000000000000000000000000000000000000000028152600401602060405180830381600087803b15801561118957600080fd5b505af115801561119d573d6000803e3d6000fd5b505050506040513d60208110156111b357600080fd5b810190808051906020019092919050505073ffffffffffffffffffffffffffffffffffffffff16600160009054906101000a900473ffffffffffffffffffffffffffffffffffffffff1673ffffffffffffffffffffffffffffffffffffffff1614151561131b576000809054906101000a900473ffffffffffffffffffffffffffffffffffffffff1673ffffffffffffffffffffffffffffffffffffffff166338cc48316040518163ffffffff167c0100000000000000000000000000000000000000000000000000000000028152600401602060405180830381600087803b15801561129f57600080fd5b505af11580156112b3573d6000803e3d6000fd5b505050506040513d60208110156112c957600080fd5b8101908080519060200190929190505050600160006101000a81548173ffffffffffffffffffffffffffffffffffffffff021916908373ffffffffffffffffffffffffffffffffffffffff1602179055505b600160009054906101000a900473ffffffffffffffffffffffffffffffffffffffff1673ffffffffffffffffffffffffffffffffffffffff1663c281d19e6040518163ffffffff167c0100000000000000000000000000000000000000000000000000000000028152600401602060405180830381600087803b1580156113a157600080fd5b505af11580156113b5573d6000803e3d6000fd5b505050506040513d60208110156113cb57600080fd5b8101908080519060200190929190505050905090565b60008060008060009054906101000a900473ffffffffffffffffffffffffffffffffffffffff1673ffffffffffffffffffffffffffffffffffffffff161480611453575060006114516000809054906101000a900473ffffffffffffffffffffffffffffffffffffffff16612298565b145b156114645761146260006122a3565b505b6000809054906101000a900473ffffffffffffffffffffffffffffffffffffffff1673ffffffffffffffffffffffffffffffffffffffff166338cc48316040518163ffffffff167c0100000000000000000000000000000000000000000000000000000000028152600401602060405180830381600087803b1580156114e957600080fd5b505af11580156114fd573d6000803e3d6000fd5b505050506040513d602081101561151357600080fd5b810190808051906020019092919050505073ffffffffffffffffffffffffffffffffffffffff16600160009054906101000a900473ffffffffffffffffffffffffffffffffffffffff1673ffffffffffffffffffffffffffffffffffffffff1614151561167b576000809054906101000a900473ffffffffffffffffffffffffffffffffffffffff1673ffffffffffffffffffffffffffffffffffffffff166338cc48316040518163ffffffff167c0100000000000000000000000000000000000000000000000000000000028152600401602060405180830381600087803b1580156115ff57600080fd5b505af1158015611613573d6000803e3d6000fd5b505050506040513d602081101561162957600080fd5b8101908080519060200190929190505050600160006101000a81548173ffffffffffffffffffffffffffffffffffffffff021916908373ffffffffffffffffffffffffffffffffffffffff1602179055505b600160009054906101000a900473ffffffffffffffffffffffffffffffffffffffff1673ffffffffffffffffffffffffffffffffffffffff16632ef3accc86856040518363ffffffff167c01000000000000000000000000000000000000000000000000000000000281526004018080602001838152602001828103825284818151815260200191508051906020019080838360005b8381101561172c578082015181840152602081019050611711565b50505050905090810190601f1680156117595780820380516001836020036101000a031916815260200191505b509350505050602060405180830381600087803b15801561177957600080fd5b505af115801561178d573d6000803e3d6000fd5b505050506040513d60208110156117a357600080fd5b81019080805190602001909291905050509050823a02670de0b6b3a7640000018111156117d65760006001029150611988565b600160009054906101000a900473ffffffffffffffffffffffffffffffffffffffff1673ffffffffffffffffffffffffffffffffffffffff1663c51be90f82888888886040518663ffffffff167c0100000000000000000000000000000000000000000000000000000000028152600401808581526020018060200180602001848152602001838103835286818151815260200191508051906020019080838360005b83811015611894578082015181840152602081019050611879565b50505050905090810190601f1680156118c15780820380516001836020036101000a031916815260200191505b50838103825285818151815260200191508051906020019080838360005b838110156118fa5780820151818401526020810190506118df565b50505050905090810190601f1680156119275780820380516001836020036101000a031916815260200191505b5096505050505050506020604051808303818588803b15801561194957600080fd5b505af115801561195d573d6000803e3d6000fd5b50505050506040513d602081101561197457600080fd5b810190808051906020019092919050505091505b50949350505050565b600061199e8260006122b4565b9050919050565b60008060008060009054906101000a900473ffffffffffffffffffffffffffffffffffffffff1673ffffffffffffffffffffffffffffffffffffffff161480611a1757506000611a156000809054906101000a900473ffffffffffffffffffffffffffffffffffffffff16612298565b145b15611a2857611a2660006122a3565b505b6000809054906101000a900473ffffffffffffffffffffffffffffffffffffffff1673ffffffffffffffffffffffffffffffffffffffff166338cc48316040518163ffffffff167c0100000000000000000000000000000000000000000000000000000000028152600401602060405180830381600087803b158015611aad57600080fd5b505af1158015611ac1573d6000803e3d6000fd5b505050506040513d6020811015611ad757600080fd5b810190808051906020019092919050505073ffffffffffffffffffffffffffffffffffffffff16600160009054906101000a900473ffffffffffffffffffffffffffffffffffffffff1673ffffffffffffffffffffffffffffffffffffffff16141515611c3f576000809054906101000a900473ffffffffffffffffffffffffffffffffffffffff1673ffffffffffffffffffffffffffffffffffffffff166338cc48316040518163ffffffff167c0100000000000000000000000000000000000000000000000000000000028152600401602060405180830381600087803b158015611bc357600080fd5b505af1158015611bd7573d6000803e3d6000fd5b505050506040513d6020811015611bed57600080fd5b8101908080519060200190929190505050600160006101000a81548173ffffffffffffffffffffffffffffffffffffffff021916908373ffffffffffffffffffffffffffffffffffffffff1602179055505b600160009054906101000a900473ffffffffffffffffffffffffffffffffffffffff1673ffffffffffffffffffffffffffffffffffffffff16632ef3accc86856040518363ffffffff167c01000000000000000000000000000000000000000000000000000000000281526004018080602001838152602001828103825284818151815260200191508051906020019080838360005b83811015611cf0578082015181840152602081019050611cd5565b50505050905090810190601f168015611d1d5780820380516001836020036101000a031916815260200191505b509350505050602060405180830381600087803b158015611d3d57600080fd5b505af1158015611d51573d6000803e3d6000fd5b505050506040513d6020811015611d6757600080fd5b81019080805190602001909291905050509050823a02670de0b6b3a764000001811115611d9a5760006001029150611f4d565b600160009054906101000a900473ffffffffffffffffffffffffffffffffffffffff1673ffffffffffffffffffffffffffffffffffffffff1663c51be90f8260008888886040518663ffffffff167c0100000000000000000000000000000000000000000000000000000000028152600401808581526020018060200180602001848152602001838103835286818151815260200191508051906020019080838360005b83811015611e59578082015181840152602081019050611e3e565b50505050905090810190601f168015611e865780820380516001836020036101000a031916815260200191505b50838103825285818151815260200191508051906020019080838360005b83811015611ebf578082015181840152602081019050611ea4565b50505050905090810190601f168015611eec5780820380516001836020036101000a031916815260200191505b5096505050505050506020604051808303818588803b158015611f0e57600080fd5b505af1158015611f22573d6000803e3d6000fd5b50505050506040513d6020811015611f3957600080fd5b810190808051906020019092919050505091505b509392505050565b60008060009054906101000a900473ffffffffffffffffffffffffffffffffffffffff1673ffffffffffffffffffffffffffffffffffffffff161480611fc457506000611fc26000809054906101000a900473ffffffffffffffffffffffffffffffffffffffff16612298565b145b15611fd557611fd360006122a3565b505b6000809054906101000a900473ffffffffffffffffffffffffffffffffffffffff1673ffffffffffffffffffffffffffffffffffffffff166338cc48316040518163ffffffff167c0100000000000000000000000000000000000000000000000000000000028152600401602060405180830381600087803b15801561205a57600080fd5b505af115801561206e573d6000803e3d6000fd5b505050506040513d602081101561208457600080fd5b810190808051906020019092919050505073ffffffffffffffffffffffffffffffffffffffff16600160009054906101000a900473ffffffffffffffffffffffffffffffffffffffff1673ffffffffffffffffffffffffffffffffffffffff161415156121ec576000809054906101000a900473ffffffffffffffffffffffffffffffffffffffff1673ffffffffffffffffffffffffffffffffffffffff166338cc48316040518163ffffffff167c0100000000000000000000000000000000000000000000000000000000028152600401602060405180830381600087803b15801561217057600080fd5b505af1158015612184573d6000803e3d6000fd5b505050506040513d602081101561219a57600080fd5b8101908080519060200190929190505050600160006101000a81548173ffffffffffffffffffffffffffffffffffffffff021916908373ffffffffffffffffffffffffffffffffffffffff1602179055505b600160009054906101000a900473ffffffffffffffffffffffffffffffffffffffff1673ffffffffffffffffffffffffffffffffffffffff1663ca6ad1e4826040518263ffffffff167c010000000000000000000000000000000000000000000000000000000002815260040180828152602001915050600060405180830381600087803b15801561227d57600080fd5b505af1158015612291573d6000803e3d6000fd5b5050505050565b6000813b9050919050565b60006122ad6125a8565b9050919050565b6000606060008060008693506000925060009150600090505b83518110156125895760307f010000000000000000000000000000000000000000000000000000000000000002848281518110151561230857fe5b9060200101517f010000000000000000000000000000000000000000000000000000000000000090047f0100000000000000000000000000000000000000000000000000000000000000027effffffffffffffffffffffffffffffffffffffffffffffffffffffffffffff191610158015612420575060397f01000000000000000000000000000000000000000000000000000000000000000284828151811015156123b057fe5b9060200101517f010000000000000000000000000000000000000000000000000000000000000090047f0100000000000000000000000000000000000000000000000000000000000000027effffffffffffffffffffffffffffffffffffffffffffffffffffffffffffff191611155b156124d157811561244357600086141561243957612589565b8580600190039650505b600a830292506030848281518110151561245957fe5b9060200101517f010000000000000000000000000000000000000000000000000000000000000090047f0100000000000000000000000000000000000000000000000000000000000000027f01000000000000000000000000000000000000000000000000000000000000009004038301925061257c565b602e7f010000000000000000000000000000000000000000000000000000000000000002848281518110151561250357fe5b9060200101517f010000000000000000000000000000000000000000000000000000000000000090047f0100000000000000000000000000000000000000000000000000000000000000027effffffffffffffffffffffffffffffffffffffffffffffffffffffffffffff1916141561257b57600191505b5b80806001019150506122cd565b600086111561259b5785600a0a830292505b8294505050505092915050565b6000806125c8731d3b2638a7cc9f2cb3d298a3da7a90b67e5506ed612298565b111561266957731d3b2638a7cc9f2cb3d298a3da7a90b67e5506ed6000806101000a81548173ffffffffffffffffffffffffffffffffffffffff021916908373ffffffffffffffffffffffffffffffffffffffff1602179055506126606040805190810160405280600b81526020017f6574685f6d61696e6e6574000000000000000000000000000000000000000000815250612a37565b60019050612a34565b600061268873c03a2615d5efaf5f49f60b7bb6583eaec212fdf1612298565b11156127295773c03a2615d5efaf5f49f60b7bb6583eaec212fdf16000806101000a81548173ffffffffffffffffffffffffffffffffffffffff021916908373ffffffffffffffffffffffffffffffffffffffff1602179055506127206040805190810160405280600c81526020017f6574685f726f707374656e330000000000000000000000000000000000000000815250612a37565b60019050612a34565b600061274873b7a07bcf2ba2f2703b24c0691b5278999c59ac7e612298565b11156127e95773b7a07bcf2ba2f2703b24c0691b5278999c59ac7e6000806101000a81548173ffffffffffffffffffffffffffffffffffffffff021916908373ffffffffffffffffffffffffffffffffffffffff1602179055506127e06040805190810160405280600981526020017f6574685f6b6f76616e0000000000000000000000000000000000000000000000815250612a37565b60019050612a34565b600061280873146500cfd35b22e4a392fe0adc06de1a1368ed48612298565b11156128a95773146500cfd35b22e4a392fe0adc06de1a1368ed486000806101000a81548173ffffffffffffffffffffffffffffffffffffffff021916908373ffffffffffffffffffffffffffffffffffffffff1602179055506128a06040805190810160405280600b81526020017f6574685f72696e6b656279000000000000000000000000000000000000000000815250612a37565b60019050612a34565b60006128c8736f485c8bf6fc43ea212e93bbf8ce046c7f1cb475612298565b111561292b57736f485c8bf6fc43ea212e93bbf8ce046c7f1cb4756000806101000a81548173ffffffffffffffffffffffffffffffffffffffff021916908373ffffffffffffffffffffffffffffffffffffffff16021790555060019050612a34565b600061294a7320e12a1f859b3feae5fb2a0a32c18f5a65555bbf612298565b11156129ad577320e12a1f859b3feae5fb2a0a32c18f5a65555bbf6000806101000a81548173ffffffffffffffffffffffffffffffffffffffff021916908373ffffffffffffffffffffffffffffffffffffffff16021790555060019050612a34565b60006129cc7351efaf4c8b3c9afbd5ab9f4bbc82784ab6ef8faa612298565b1115612a2f577351efaf4c8b3c9afbd5ab9f4bbc82784ab6ef8faa6000806101000a81548173ffffffffffffffffffffffffffffffffffffffff021916908373ffffffffffffffffffffffffffffffffffffffff16021790555060019050612a34565b600090505b90565b8060029080519060200190612a4d929190612a51565b5050565b828054600181600116156101000203166002900490600052602060002090601f016020900481019282601f10612a9257805160ff1916838001178555612ac0565b82800160010185558215612ac0579182015b82811115612abf578251825591602001919060010190612aa4565b5b509050612acd9190612ad1565b5090565b612af391905b80821115612aef576000816000905550600101612ad7565b5090565b905600a165627a7a723058201574361d25ed7aec96319a1229ff10354e2d27696a0b353b2e356e31626dbe000029",
  "source": "pragma solidity ^0.4.23;\nimport \"./utils/usingOraclize.sol\";\n\n\ncontract USDETHOracle is usingOraclize {\n\n    string public ethUsdString;\n\n    address public admin;\n    bool public lock = false;\n    uint256 public intervalInSeconds;\n    bytes32 public pendingId = 0;\n    string public url;\n\n    event LogOraclizeQuery(string description);\n    event LogNewPrice(string price);\n\n    function USDETHOracle(address _admin, uint256 _interval) public {\n        admin = _admin;\n        intervalInSeconds = _interval;\n        oraclize_setCustomGasPrice(10000000000); // 10 gwei default\n        // default on deploy\n        url = \"json(https://api.kraken.com/0/public/Ticker?pair=ETHUSD).result.XETHZUSD.c.0\";\n    }\n\n    modifier onlyAdmin {\n        require(msg.sender == admin);\n        _;\n    }\n\n    // anyone should be able to fund the oracle if necessary\n    function () public payable {} // solhint-disable-line no-empty-blocks\n\n    function __callback(bytes32 myid, string result) public { // solhint-disable-line\n        require(msg.sender == oraclize_cbAddress());\n        require(pendingId == myid);\n\n        ethUsdString = result;\n        emit LogNewPrice(ethUsdString);\n\n        require(!lock);\n        emit LogOraclizeQuery(\"Oraclize Queried\");\n        pendingId = oraclize_query(intervalInSeconds, \"URL\", url, 150000);\n    }\n\n    function update() public payable onlyAdmin {\n        require(!lock);\n        emit LogOraclizeQuery(\"Oraclize Queried\");\n        pendingId = oraclize_query(\"URL\", url, 150000);\n    }\n\n    function setGasPrice(uint256 _newGasPrice) public onlyAdmin {\n        oraclize_setCustomGasPrice(_newGasPrice); // 10 gwei default\n    }\n\n    function updateInterval(uint256 _newInterval) public onlyAdmin {\n        intervalInSeconds = _newInterval;\n    }\n\n    function lockOracle() public onlyAdmin {\n        lock = !lock;\n    }\n\n    function changeURL(string _newURL) public onlyAdmin {\n        url = _newURL;\n    }\n\n    function changeAdmin(address _newAdmin) public onlyAdmin {\n        admin = _newAdmin;\n    }\n\n    function drainOracle() public onlyAdmin {\n        msg.sender.transfer(this.balance);\n    }\n\n    function getPrice() public constant returns (string) {\n        return ethUsdString;\n    }\n\n    function getUintPrice() public constant returns (uint) {\n        return parseInt(ethUsdString);\n    }\n}\n",
  "sourcePath": "/Users/simondlr/code/ethereum/contracts-oracle/contracts/USDETHOracle.sol",
  "compiler": {
    "name": "solc",
    "version": "0.4.23+commit.124ca40d.Emscripten.clang"
  },
  "schemaVersion": "2.0.0",
  "updatedAt": "2018-06-12T15:37:36.548Z"
}